{"contracts/aa/AccountFactory.sol":{"AccountFactory":{"abi":[{"inputs":[],"stateMutability":"nonpayable","type":"constructor"},{"inputs":[],"name":"accountImplementation","outputs":[{"internalType":"contract Account","name":"","type":"address"}],"stateMutability":"view","type":"function"},{"inputs":[{"internalType":"uint256","name":"pubKeyX","type":"uint256"},{"internalType":"uint256","name":"pubKeyY","type":"uint256"},{"internalType":"string","name":"keyId","type":"string"},{"internalType":"uint256","name":"salt","type":"uint256"}],"name":"createAccount","outputs":[{"internalType":"contract Account","name":"ret","type":"address"}],"stateMutability":"nonpayable","type":"function"},{"inputs":[{"internalType":"uint256","name":"pubKeyX","type":"uint256"},{"internalType":"uint256","name":"pubKeyY","type":"uint256"},{"internalType":"string","name":"keyId","type":"string"},{"internalType":"uint256","name":"salt","type":"uint256"}],"name":"getAddress","outputs":[{"internalType":"address","name":"","type":"address"}],"stateMutability":"view","type":"function"}],"devdoc":{"kind":"dev","methods":{},"version":1},"evm":{"bytecode":{"linkReferences":{},"object":"60a0806040523461007e576124ec8181016001600160401b03811183821017610068578291610a36833903906000f0801561005c576080526040516109b29081610084823960805181818160e6015281816103f301526105260152f35b6040513d6000823e3d90fd5b634e487b7160e01b600052604160045260246000fd5b600080fdfe608080604052600436101561001357600080fd5b600090813560e01c90816311464fbe1461009c57508063c8cb55ae1461007f5763cac8cfc21461004257600080fd5b3461007c57602061005e6100553661019a565b92919091610450565b73ffffffffffffffffffffffffffffffffffffffff60405191168152f35b80fd5b503461007c57602061005e6100933661019a565b9291909161031a565b90503461010a57817ffffffffffffffffffffffffffffffffffffffffffffffffffffffffffffffffc36011261010a5760209073ffffffffffffffffffffffffffffffffffffffff7f0000000000000000000000000000000000000000000000000000000000000000168152f35b5080fd5b6060810190811067ffffffffffffffff82111761012a57604052565b7f4e487b7100000000000000000000000000000000000000000000000000000000600052604160045260246000fd5b90601f7fffffffffffffffffffffffffffffffffffffffffffffffffffffffffffffffe0910116810190811067ffffffffffffffff82111761012a57604052565b60807ffffffffffffffffffffffffffffffffffffffffffffffffffffffffffffffffc82011261025357600435916024359167ffffffffffffffff604435818111610253578260238201121561025357806004013591821161012a576040519261022c60207fffffffffffffffffffffffffffffffffffffffffffffffffffffffffffffffe0601f8601160185610159565b82845260248383010111610253578160009260246020930183860137830101529060643590565b600080fd5b60005b83811061026b5750506000910152565b818101518382015260200161025b565b907fffffffffffffffffffffffffffffffffffffffffffffffffffffffffffffffe0601f6020936102b781518092818752878088019101610258565b0116010190565b608060406102ea936020845280516020850152602081015182850152015191606080820152019061027b565b90565b60409073ffffffffffffffffffffffffffffffffffffffff6102ea9493168152816020820152019061027b565b928092610342926040519561032e8761010e565b808752816020880152826040880152610450565b803b61043457506103b1610385926040519384917f759a68c0000000000000000000000000000000000000000000000000000000006020840152602483016102be565b037fffffffffffffffffffffffffffffffffffffffffffffffffffffffffffffffe08101845283610159565b604051610403928382019382851067ffffffffffffffff86111761012a578291610419916105a3843973ffffffffffffffffffffffffffffffffffffffff95867f000000000000000000000000000000000000000000000000000000000000000016906102ed565b03906000f58015610428571690565b6040513d6000823e3d90fd5b73ffffffffffffffffffffffffffffffffffffffff1692915050565b92600b92916055946040938451916104678361010e565b8252602092838301528482015261057e61058a83610403936104d088519161049184880184610159565b868352838301966105a3883989519182917f759a68c00000000000000000000000000000000000000000000000000000000086840152602483016102be565b036105017fffffffffffffffffffffffffffffffffffffffffffffffffffffffffffffffe091828101845283610159565b6105588a51918261054c8782019573ffffffffffffffffffffffffffffffffffffffff7f000000000000000000000000000000000000000000000000000000000000000016876102ed565b03908101835282610159565b895195869361056f868601998a9251928391610258565b84019151809386840190610258565b01038084520182610159565b5190208351938401528201523081520160ff8153209056fe604060808152610403908138038061001681610218565b93843982019181818403126102135780516001600160a01b038116808203610213576020838101516001600160401b0394919391858211610213570186601f820112156102135780519061007161006c83610253565b610218565b918083528583019886828401011161021357888661008f930161026e565b813b156101b9577f360894a13ba1a3210667c828492db98dca3e2076cc3735a920a3ca505d382bbc80546001600160a01b031916841790556000927fbc7cd75a20ee27fd9adebab32041f755214dbc6bffa90cc0225b39da2e5c2d3b8480a28051158015906101b2575b61010b575b855160be90816103458239f35b855194606086019081118682101761019e578697849283926101889952602788527f416464726573733a206c6f772d6c6576656c2064656c65676174652063616c6c87890152660819985a5b195960ca1b8a8901525190845af4913d15610194573d9061017a61006c83610253565b91825281943d92013e610291565b508038808080806100fe565b5060609250610291565b634e487b7160e01b84526041600452602484fd5b50826100f9565b855162461bcd60e51b815260048101859052602d60248201527f455243313936373a206e657720696d706c656d656e746174696f6e206973206e60448201526c1bdd08184818dbdb9d1c9858dd609a1b6064820152608490fd5b600080fd5b6040519190601f01601f191682016001600160401b0381118382101761023d57604052565b634e487b7160e01b600052604160045260246000fd5b6001600160401b03811161023d57601f01601f191660200190565b60005b8381106102815750506000910152565b8181015183820152602001610271565b919290156102f357508151156102a5575090565b3b156102ae5790565b60405162461bcd60e51b815260206004820152601d60248201527f416464726573733a2063616c6c20746f206e6f6e2d636f6e74726163740000006044820152606490fd5b8251909150156103065750805190602001fd5b6044604051809262461bcd60e51b825260206004830152610336815180928160248601526020868601910161026e565b601f01601f19168101030190fdfe60806040523615605f5773ffffffffffffffffffffffffffffffffffffffff7f360894a13ba1a3210667c828492db98dca3e2076cc3735a920a3ca505d382bbc54166000808092368280378136915af43d82803e15605b573d90f35b3d90fd5b73ffffffffffffffffffffffffffffffffffffffff7f360894a13ba1a3210667c828492db98dca3e2076cc3735a920a3ca505d382bbc54166000808092368280378136915af43d82803e15605b573d90f3fea164736f6c6343000813000aa164736f6c6343000813000a608080604052346100c1576000549060ff8260081c1661006f575060ff80821603610034575b60405161242590816100c78239f35b60ff90811916176000557f7f26b83ff96e1f2b6a682f133852f6798a09c465da95921460cefb3847402498602060405160ff8152a138610025565b62461bcd60e51b815260206004820152602760248201527f496e697469616c697a61626c653a20636f6e747261637420697320696e697469604482015266616c697a696e6760c81b6064820152608490fd5b600080fdfe6080604052600436101561001b575b361561001957600080fd5b005b6000803560e01c908163759a68c01461008e575080638fb4107214610089578063b627e20f14610084578063be9ef8431461007f578063d087d2881461007a578063f0f05cef146100755763fd5c8d720361000e5761055a565b610475565b6103e9565b6103a8565b610353565b610296565b3461013e577ffffffffffffffffffffffffffffffffffffffffffffffffffffffffffffffffc6020813601126101325760043567ffffffffffffffff9182821161013a576060908236030112610136576100e860e0604052565b8060040135608052602481013560a052604481013591821161013657013660238201121561013257610124903690602460048201359101610237565b60c05261012f6106d1565b80f35b5080fd5b8280fd5b8380fd5b80fd5b7f4e487b7100000000000000000000000000000000000000000000000000000000600052604160045260246000fd5b6060810190811067ffffffffffffffff82111761018c57604052565b610141565b6080810190811067ffffffffffffffff82111761018c57604052565b90601f7fffffffffffffffffffffffffffffffffffffffffffffffffffffffffffffffe0910116810190811067ffffffffffffffff82111761018c57604052565b604051906101fb82610170565b565b67ffffffffffffffff811161018c57601f017fffffffffffffffffffffffffffffffffffffffffffffffffffffffffffffffe01660200190565b929192610243826101fd565b9161025160405193846101ad565b82948184528183011161026e578281602093846000960137010152565b600080fd5b60005b8381106102865750506000910152565b8181015183820152602001610276565b3461026e5760007ffffffffffffffffffffffffffffffffffffffffffffffffffffffffffffffffc36011261026e576060604080516102d481610170565b60008152600060208201520152604060a06102ed6105cd565b7fffffffffffffffffffffffffffffffffffffffffffffffffffffffffffffffe0601f84519485936020855280516020860152602081015182860152015160608085015261034a8151809281608088015260208888019101610273565b01168101030190f35b3461026e5760007ffffffffffffffffffffffffffffffffffffffffffffffffffffffffffffffffc36011261026e57602073ffffffffffffffffffffffffffffffffffffffff60005460101c16604051908152f35b3461026e5760007ffffffffffffffffffffffffffffffffffffffffffffffffffffffffffffffffc36011261026e57602060ff600454166040519015158152f35b3461026e5760007ffffffffffffffffffffffffffffffffffffffffffffffffffffffffffffffffc36011261026e576020600554604051908152f35b7ffffffffffffffffffffffffffffffffffffffffffffffffffffffffffffffffc9060208282011261026e576004359167ffffffffffffffff831161026e578260809203011261026e5760040190565b3461026e5761048336610425565b61049561048f826114a6565b15610b9a565b6104a76104a18261184f565b15610c25565b60038135801561053d575b60018114610520575b60028114610503575b146104dd575b6100196104d8600554610d30565b600555565b6104f86104f18260206104fd940190610cb0565b3691610237565b610ee4565b386104ca565b61051b6105166104f16020860186610cb0565b610d67565b6104c4565b6105386105336104f16020860186610cb0565b61133d565b6104bb565b6105556105506104f16020860186610cb0565b61104c565b6104b2565b3461026e57602061057261056d36610425565b611a8d565b604051908152f35b90600182811c921680156105c3575b602083101461059457565b7f4e487b7100000000000000000000000000000000000000000000000000000000600052602260045260246000fd5b91607f1691610589565b604051906105da82610170565b816001908154815260025460209081830152604051928391600091600354906106028261057a565b80865291818116908115610694575060011461062f575b5050506040929161062b9103846101ad565b0152565b909493925060036000527fc2575a0e9e593c00f959f8c92f12db2869c3395a3b0502d05e2516446f71f85b946000915b81831061067c5750939450919250908201018161062b6040610619565b8654888401850152958601958794509183019161065f565b7fffffffffffffffffffffffffffffffffffffffffffffffffffffffffffffff0016848701525050151560051b83010190508161062b6040610619565b60005460ff8160081c16158091819261086c575b811561084c575b50156107c8578061072360017fffffffffffffffffffffffffffffffffffffffffffffffffffffffffffffff006000541617600055565b610792575b61073061087a565b61073657565b6107637fffffffffffffffffffffffffffffffffffffffffffffffffffffffffffff00ff60005416600055565b604051600181527f7f26b83ff96e1f2b6a682f133852f6798a09c465da95921460cefb384740249890602090a1565b6107c36101007fffffffffffffffffffffffffffffffffffffffffffffffffffffffffffff00ff6000541617600055565b610728565b60846040517f08c379a000000000000000000000000000000000000000000000000000000000815260206004820152602e60248201527f496e697469616c697a61626c653a20636f6e747261637420697320616c72656160448201527f647920696e697469616c697a65640000000000000000000000000000000000006064820152fd5b303b1591508161085e575b50386106ec565b6001915060ff161438610857565b600160ff82161091506106e5565b6001807fffffffffffffffffffffffffffffffffffffffffffffffffffffffffffffff006004541617600455608051815560a05160025560c0519081519167ffffffffffffffff831161018c576108db836108d660035461057a565b610a1a565b60209081601f85116001146109545750600091849182610929575b50507fffffffffffffffffffffffffffffffffffffffffffffffffffffffffffffffff91921b9260031b1c191617600355565b015191507fffffffffffffffffffffffffffffffffffffffffffffffffffffffffffffffff386108f6565b9190847fffffffffffffffffffffffffffffffffffffffffffffffffffffffffffffffe0819596166109a860036000527fc2575a0e9e593c00f959f8c92f12db2869c3395a3b0502d05e2516446f71f85b90565b946000905b88838310610a0057505050106109c9575b505050811b01600355565b01517fffffffffffffffffffffffffffffffffffffffffffffffffffffffffffffffff60f88460031b161c191690553880806109be565b8587015188559096019594850194879350908101906109ad565b601f8111610a26575050565b600090600382527fc2575a0e9e593c00f959f8c92f12db2869c3395a3b0502d05e2516446f71f85b906020601f850160051c83019410610a81575b601f0160051c01915b828110610a7657505050565b818155600101610a6a565b9092508290610a61565b8051600190815560406020928381015160025501519182519267ffffffffffffffff841161018c57610ac2846108d660035461057a565b81601f8511600114610b0c57506000918491826109295750507fffffffffffffffffffffffffffffffffffffffffffffffffffffffffffffffff91921b9260031b1c191617600355565b9190847fffffffffffffffffffffffffffffffffffffffffffffffffffffffffffffffe081959616610b6060036000527fc2575a0e9e593c00f959f8c92f12db2869c3395a3b0502d05e2516446f71f85b90565b946000905b88838310610b8057505050106109c957505050811b01600355565b858701518855909601959485019487935090810190610b65565b15610ba157565b60846040517f08c379a000000000000000000000000000000000000000000000000000000000815260206004820152602660248201527f4163636f756e743a205369676e617475726520766572696669636174696f6e2060448201527f6661696c656400000000000000000000000000000000000000000000000000006064820152fd5b15610c2c57565b60846040517f08c379a000000000000000000000000000000000000000000000000000000000815260206004820152602260248201527f4163636f756e743a204e6f6e636520766572696669636174696f6e206661696c60448201527f65640000000000000000000000000000000000000000000000000000000000006064820152fd5b9035907fffffffffffffffffffffffffffffffffffffffffffffffffffffffffffffffe18136030182121561026e570180359067ffffffffffffffff821161026e5760200191813603831361026e57565b7f4e487b7100000000000000000000000000000000000000000000000000000000600052601160045260246000fd5b9060018201809211610d3e57565b610d01565b604051906020820182811067ffffffffffffffff82111761018c5760405260008252565b600160ff60045416151503610e1b576014610dee910151610da6610d896101ee565b6000815260006020820152610d9c610d43565b6040820152610a8b565b7fffffffffffffffffffff0000000000000000000000000000000000000000ffff75ffffffffffffffffffffffffffffffffffffffff00006000549260101b16911617600055565b6101fb7fffffffffffffffffffffffffffffffffffffffffffffffffffffffffffffff0060045416600455565b60846040517f08c379a000000000000000000000000000000000000000000000000000000000815260206004820152602660248201527f4163636f756e743a20416c72656164792061646472657373206f776e6572206560448201527f6e61626c656400000000000000000000000000000000000000000000000000006064820152fd5b81601f8201121561026e578051610eb5816101fd565b92610ec360405194856101ad565b8184526020828401011161026e57610ee19160208085019101610273565b90565b60ff60045416610faa57805181019060608183031261026e5760208101519060408101519060608101519067ffffffffffffffff821161026e576020610f329281610f7a9701920101610e9f565b90610f3b6101ee565b92835260208301526040820152610f757fffffffffffffffffffff0000000000000000000000000000000000000000ffff60005416600055565b610a8b565b6101fb60017fffffffffffffffffffffffffffffffffffffffffffffffffffffffffffffff006004541617600455565b60846040517f08c379a000000000000000000000000000000000000000000000000000000000815260206004820152602660248201527f4163636f756e743a20416c726561647920706173736b6579206f776e6572206560448201527f6e61626c656400000000000000000000000000000000000000000000000000006064820152fd5b73ffffffffffffffffffffffffffffffffffffffff81160361026e57565b8051810160608282031261026e576020820151906110698261102e565b604083015190606084015167ffffffffffffffff811161026e576101fb9460206110ad928173ffffffffffffffffffffffffffffffffffffffff9501920101610e9f565b9216611486565b67ffffffffffffffff811161018c5760051b60200190565b81601f8201121561026e578051916110e3836110b4565b926110f160405194856101ad565b808452602092838086019260051b82010192831161026e578301905b82821061111b575050505090565b8151815290830190830161110d565b9080601f8301121561026e57815190611142826110b4565b9261115060405194856101ad565b828452602092838086019160051b8301019280841161026e57848301915b84831061117e5750505050505090565b825167ffffffffffffffff811161026e5786916111a084848094890101610e9f565b81520192019161116e565b909160608284031261026e5781519167ffffffffffffffff9283811161026e5781019380601f8601121561026e5784516111e4816110b4565b906111f260405192836101ad565b808252602096878084019260051b8201019184831161026e5788809201905b83821061124a57505050509482015184811161026e57816112339184016110cc565b93604083015190811161026e57610ee1920161112a565b82809183516112588161102e565b815201910190611211565b1561126a57565b60646040517f08c379a000000000000000000000000000000000000000000000000000000000815260206004820152601360248201527f77726f6e67206172726179206c656e67746873000000000000000000000000006044820152fd5b7fffffffffffffffffffffffffffffffffffffffffffffffffffffffffffffffff8114610d3e5760010190565b7f4e487b7100000000000000000000000000000000000000000000000000000000600052603260045260246000fd5b80518210156113385760209160051b010190565b6112f5565b61135090602080825183010191016111ab565b92919061136a825185518091149081611416575b50611263565b80516113cc575060005b81518110156113c657806113bc6113ab6113916113c19486611324565b5173ffffffffffffffffffffffffffffffffffffffff1690565b6113b58388611324565b5190611435565b6112c8565b611374565b50509050565b929060005b815181101561140f57806113bc6113ee61139161140a9486611324565b6113f88389611324565b516114038488611324565b5191611486565b6113d1565b5050509050565b835180159250821561142b575b505038611364565b1490503880611423565b600091829182602083519301915af13d1561147e573d90611455826101fd565b9161146360405193846101ad565b82523d6000602084013e5b156114765750565b602081519101fd5b60609061146e565b916000928392602083519301915af13d1561147e573d90611455826101fd565b6114af81611a8d565b60045460ff16156114f3576114e1906114d26104f18460606114e5960190610cb0565b906114db6105cd565b91611997565b1590565b6114ee57600090565b600190565b61159461157b61154173ffffffffffffffffffffffffffffffffffffffff937f19457468657265756d205369676e6564204d6573736167653a0a333200000000600052601c52603c60002090565b6115756104f161156a60005473ffffffffffffffffffffffffffffffffffffffff9060101c1690565b966060810190610cb0565b906115a0565b73ffffffffffffffffffffffffffffffffffffffff1690565b9116036114ee57600090565b610ee1916115ad91611777565b9190916115ee565b600511156115bf57565b7f4e487b7100000000000000000000000000000000000000000000000000000000600052602160045260246000fd5b6115f7816115b5565b806115ff5750565b611608816115b5565b6001810361166f576040517f08c379a000000000000000000000000000000000000000000000000000000000815260206004820152601860248201527f45434453413a20696e76616c6964207369676e617475726500000000000000006044820152606490fd5b611678816115b5565b600281036116df576040517f08c379a000000000000000000000000000000000000000000000000000000000815260206004820152601f60248201527f45434453413a20696e76616c6964207369676e6174757265206c656e677468006044820152606490fd5b806116eb6003926115b5565b146116f257565b6040517f08c379a000000000000000000000000000000000000000000000000000000000815260206004820152602260248201527f45434453413a20696e76616c6964207369676e6174757265202773272076616c60448201527f75650000000000000000000000000000000000000000000000000000000000006064820152608490fd5b9060418151146000146117a5576117a1916020820151906060604084015193015160001a906117bb565b9091565b5050600090600290565b6040513d6000823e3d90fd5b9291907f7fffffffffffffffffffffffffffffff5d576e7357a4501ddfe92f46681b20a083116118435791608094939160ff602094604051948552168484015260408301526060820152600093849182805260015afa1561183e57815173ffffffffffffffffffffffffffffffffffffffff811615611838579190565b50600190565b6117af565b50505050600090600390565b60406005549101351461186157600190565b600090565b90604051916020830152602082526040820182811067ffffffffffffffff82111761018c57604052565b906118a360209282815194859201610273565b0190565b6101fb9193929360405194859183516118c881602096878088019101610273565b83016118dc82518093878085019101610273565b016118ef82518093868085019101610273565b010380855201836101ad565b60406101fb919392938151948161191c879351809260208087019101610273565b82019060208201520360208101855201836101ad565b1561193957565b60646040517f08c379a000000000000000000000000000000000000000000000000000000000815260206004820152600d60248201527f4b6579206e6f7420666f756e64000000000000000000000000000000000000006044820152fd5b90815182019060209260c08185850194031261026e5760408101519160608201519360808301519267ffffffffffffffff9384811161026e5782886119de92840101610e9f565b9360a082015181811161026e5783896119f992850101610e9f565b9360c083015191821161026e578894611a2f611a2a611a2460009789611a3597611a41990101610e9f565b93611866565b611bcb565b906118a7565b60405191828092611890565b039060025afa1561183e576000611a5e611a3586938351906118fb565b039060025afa1561183e57610ee193611a8360005194820151151580611a8857611932565b611c7d565b611932565b611a9a6020820182610cb0565b9081604051918237206040805192602084019281358452828501520135606083015260608252608082019082821067ffffffffffffffff83111761018c5781604052825190209160a081019283523060c082015260e04691015260608152611b0181610191565b51902090565b60405190611b1482610170565b604082527f6768696a6b6c6d6e6f707172737475767778797a303132333435363738392d5f6040837f4142434445464748494a4b4c4d4e4f505152535455565758595a61626364656660208201520152565b908160031b9180830460081490151715610d3e57565b90611b86826101fd565b611b9360405191826101ad565b8281527fffffffffffffffffffffffffffffffffffffffffffffffffffffffffffffffe0611bc182946101fd565b0190602036910137565b805115611c7457611bda611b07565b611c00611bf1611bea8451611b66565b6006900490565b835160069006611c6657611b7c565b91602083019181805101925b838310611c1a575050505090565b6004906003809401938451600190603f9082828260121c16880101518553828282600c1c16880101518386015382828260061c1688010151600286015316850101519082015301611c0c565b611c6f906112c8565b611b7c565b50610ee1610d43565b92919080158015611e98575b8015611e6e575b8015611e44575b611e3b57610ee193611e30611caa612015565b91611cb36101ee565b600081526000602082015260006040820152835260208151910151611cd66101ee565b918252602082015260016040820152611cf560208401918083526120a4565b90611e21611d0b6040860193808552835161205a565b9260608601938452611e11611e01611d216101ee565b7f6b17d1f2e12c4247f8bce6e563a440f277037d812deb33a0f4a13945d898c29681527f4fe342e2fe1a7f9b8ee7eb4a7c0f9e162bce33576b315ececbb6406837bf51f5602082015260016040820152611d8460808a019180835287519061205a565b60a08a0152611d96815185519061205a565b60c08a0152611da8815188519061205a565b60e08a0152611db781516120a4565b90611dcc6101008b019280845288519061205a565b6101208b0152611ddf825186519061205a565b6101408b0152611df2825189519061205a565b6101608b01525190519061205a565b610180880194818652519061205a565b6101a0870152825190519061205a565b6101c08501525190519061205a565b6101e0820152611ea0565b50505050600090565b507fffffffff00000000ffffffffffffffffbce6faada7179e84f3b9cac2fc632551821015611c97565b507fffffffff00000000ffffffffffffffffbce6faada7179e84f3b9cac2fc632551811015611c90565b508115611c89565b939290917fffffffff00000000ffffffffffffffffbce6faada7179e84f3b9cac2fc63255190818410801590611fb0575b611fa657611edf829161236e565b809309918309600080918193608091825b611f0857505050611f03939495506120c4565b501490565b85611f84575b888160fe1c600c8460fc1c161780611f3b575b5050611f3490600292831b921b92611fcb565b9182611ef0565b611f779397611f34976040611f6e611f5685879b989b611fba565b5151946020611f658289611fba565b51015196611fba565b5101519461219b565b9590945090928838611f21565b9294611f959194611f9b93966122b8565b916122b8565b949193909392611f0e565b5060009450505050565b5081811015611ed1565b9060108110156113385760051b0190565b8015610d3e577fffffffffffffffffffffffffffffffffffffffffffffffffffffffffffffffff0190565b6040519061200382610170565b60006040838281528260208201520152565b6040519061020080830183811067ffffffffffffffff82111761018c576040528260005b82811061204557505050565b602090612050611ff6565b8184015201612039565b61208791612066611ff6565b5081519160406020820151910151825191604060208501519401519461219b565b906040519261209584610170565b83526020830152604082015290565b612087906120b0611ff6565b5080519060406020820151910151916122b8565b929190811561218f578160007fffffffff00000001000000000000000000000000ffffffffffffffffffffffff8481809611612185575b505060405191602083526020808401526020604084015260608301527fffffffff00000001000000000000000000000000fffffffffffffffffffffffd60808301528360a083015260208260c08160057ffffffffffffffffffffffffffffffffffffffffffffffffffffffffffffffffffa1561013e575082905181808280098097099509900990565b06915083386120fb565b50509050600090600090565b9395939190816121ad57505050929190565b909291949586156122ae577fffffffff00000001000000000000000000000000ffffffffffffffffffffffff9586858196958280838199099b818d999781868180808f9d888009809d099c8d99099c81878d0990099c0990099308958181106122a7575b03958280808960020980099281808481878d09938181106122a0575b036002099481868009980996828089600209830890818110612299575b039b8c936002090994818110612292575b03900997828910612289575b859182910892800995828710612280575b960394030990565b95840195612278565b97850197612267565b830161225b565b830161224a565b820161222d565b8301612211565b5094505091929190565b9290917fffffffff00000001000000000000000000000000ffffffffffffffffffffffff809181858009958280808080808c87096004099a800960080992818080808089800980097fffffffff00000001000000000000000000000000fffffffffffffffffffffffc0992800960030908818960020982828009818110612367575b038981809b10612360575b039009818110612359575b03940960020990565b8301612350565b8301612345565b830161233a565b7fffffffff00000000ffffffffffffffffbce6faada7179e84f3b9cac2fc63255180821161240f575b60405191602083526020808401526020604084015260608301527fffffffff00000000ffffffffffffffffbce6faada7179e84f3b9cac2fc63254f608083015260a082015260208160c08160057ffffffffffffffffffffffffffffffffffffffffffffffffffffffffffffffffffa1561026e575190565b8091069061239756fea164736f6c6343000813000a","opcodes":"PUSH1 0xA0 DUP1 PUSH1 0x40 MSTORE CALLVALUE PUSH2 0x7E JUMPI PUSH2 0x24EC DUP2 DUP2 ADD PUSH1 0x1 PUSH1 0x1 PUSH1 0x40 SHL SUB DUP2 GT DUP4 DUP3 LT OR PUSH2 0x68 JUMPI DUP3 SWAP2 PUSH2 0xA36 DUP4 CODECOPY SUB SWAP1 PUSH1 0x0 CREATE DUP1 ISZERO PUSH2 0x5C JUMPI PUSH1 0x80 MSTORE PUSH1 0x40 MLOAD PUSH2 0x9B2 SWAP1 DUP2 PUSH2 0x84 DUP3 CODECOPY PUSH1 0x80 MLOAD DUP2 DUP2 DUP2 PUSH1 0xE6 ADD MSTORE DUP2 DUP2 PUSH2 0x3F3 ADD MSTORE PUSH2 0x526 ADD MSTORE RETURN JUMPDEST PUSH1 0x40 MLOAD RETURNDATASIZE PUSH1 0x0 DUP3 RETURNDATACOPY RETURNDATASIZE SWAP1 REVERT JUMPDEST PUSH4 0x4E487B71 PUSH1 0xE0 SHL PUSH1 0x0 MSTORE PUSH1 0x41 PUSH1 0x4 MSTORE PUSH1 0x24 PUSH1 0x0 REVERT JUMPDEST PUSH1 0x0 DUP1 REVERT INVALID PUSH1 0x80 DUP1 PUSH1 0x40 MSTORE PUSH1 0x4 CALLDATASIZE LT ISZERO PUSH2 0x13 JUMPI PUSH1 0x0 DUP1 REVERT JUMPDEST PUSH1 0x0 SWAP1 DUP2 CALLDATALOAD PUSH1 0xE0 SHR SWAP1 DUP2 PUSH4 0x11464FBE EQ PUSH2 0x9C JUMPI POP DUP1 PUSH4 0xC8CB55AE EQ PUSH2 0x7F JUMPI PUSH4 0xCAC8CFC2 EQ PUSH2 0x42 JUMPI PUSH1 0x0 DUP1 REVERT JUMPDEST CALLVALUE PUSH2 0x7C JUMPI PUSH1 0x20 PUSH2 0x5E PUSH2 0x55 CALLDATASIZE PUSH2 0x19A JUMP JUMPDEST SWAP3 SWAP2 SWAP1 SWAP2 PUSH2 0x450 JUMP JUMPDEST PUSH20 0xFFFFFFFFFFFFFFFFFFFFFFFFFFFFFFFFFFFFFFFF PUSH1 0x40 MLOAD SWAP2 AND DUP2 MSTORE RETURN JUMPDEST DUP1 REVERT JUMPDEST POP CALLVALUE PUSH2 0x7C JUMPI PUSH1 0x20 PUSH2 0x5E PUSH2 0x93 CALLDATASIZE PUSH2 0x19A JUMP JUMPDEST SWAP3 SWAP2 SWAP1 SWAP2 PUSH2 0x31A JUMP JUMPDEST SWAP1 POP CALLVALUE PUSH2 0x10A JUMPI DUP2 PUSH32 0xFFFFFFFFFFFFFFFFFFFFFFFFFFFFFFFFFFFFFFFFFFFFFFFFFFFFFFFFFFFFFFFC CALLDATASIZE ADD SLT PUSH2 0x10A JUMPI PUSH1 0x20 SWAP1 PUSH20 0xFFFFFFFFFFFFFFFFFFFFFFFFFFFFFFFFFFFFFFFF PUSH32 0x0 AND DUP2 MSTORE RETURN JUMPDEST POP DUP1 REVERT JUMPDEST PUSH1 0x60 DUP2 ADD SWAP1 DUP2 LT PUSH8 0xFFFFFFFFFFFFFFFF DUP3 GT OR PUSH2 0x12A JUMPI PUSH1 0x40 MSTORE JUMP JUMPDEST PUSH32 0x4E487B7100000000000000000000000000000000000000000000000000000000 PUSH1 0x0 MSTORE PUSH1 0x41 PUSH1 0x4 MSTORE PUSH1 0x24 PUSH1 0x0 REVERT JUMPDEST SWAP1 PUSH1 0x1F PUSH32 0xFFFFFFFFFFFFFFFFFFFFFFFFFFFFFFFFFFFFFFFFFFFFFFFFFFFFFFFFFFFFFFE0 SWAP2 ADD AND DUP2 ADD SWAP1 DUP2 LT PUSH8 0xFFFFFFFFFFFFFFFF DUP3 GT OR PUSH2 0x12A JUMPI PUSH1 0x40 MSTORE JUMP JUMPDEST PUSH1 0x80 PUSH32 0xFFFFFFFFFFFFFFFFFFFFFFFFFFFFFFFFFFFFFFFFFFFFFFFFFFFFFFFFFFFFFFFC DUP3 ADD SLT PUSH2 0x253 JUMPI PUSH1 0x4 CALLDATALOAD SWAP2 PUSH1 0x24 CALLDATALOAD SWAP2 PUSH8 0xFFFFFFFFFFFFFFFF PUSH1 0x44 CALLDATALOAD DUP2 DUP2 GT PUSH2 0x253 JUMPI DUP3 PUSH1 0x23 DUP3 ADD SLT ISZERO PUSH2 0x253 JUMPI DUP1 PUSH1 0x4 ADD CALLDATALOAD SWAP2 DUP3 GT PUSH2 0x12A JUMPI PUSH1 0x40 MLOAD SWAP3 PUSH2 0x22C PUSH1 0x20 PUSH32 0xFFFFFFFFFFFFFFFFFFFFFFFFFFFFFFFFFFFFFFFFFFFFFFFFFFFFFFFFFFFFFFE0 PUSH1 0x1F DUP7 ADD AND ADD DUP6 PUSH2 0x159 JUMP JUMPDEST DUP3 DUP5 MSTORE PUSH1 0x24 DUP4 DUP4 ADD ADD GT PUSH2 0x253 JUMPI DUP2 PUSH1 0x0 SWAP3 PUSH1 0x24 PUSH1 0x20 SWAP4 ADD DUP4 DUP7 ADD CALLDATACOPY DUP4 ADD ADD MSTORE SWAP1 PUSH1 0x64 CALLDATALOAD SWAP1 JUMP JUMPDEST PUSH1 0x0 DUP1 REVERT JUMPDEST PUSH1 0x0 JUMPDEST DUP4 DUP2 LT PUSH2 0x26B JUMPI POP POP PUSH1 0x0 SWAP2 ADD MSTORE JUMP JUMPDEST DUP2 DUP2 ADD MLOAD DUP4 DUP3 ADD MSTORE PUSH1 0x20 ADD PUSH2 0x25B JUMP JUMPDEST SWAP1 PUSH32 0xFFFFFFFFFFFFFFFFFFFFFFFFFFFFFFFFFFFFFFFFFFFFFFFFFFFFFFFFFFFFFFE0 PUSH1 0x1F PUSH1 0x20 SWAP4 PUSH2 0x2B7 DUP2 MLOAD DUP1 SWAP3 DUP2 DUP8 MSTORE DUP8 DUP1 DUP9 ADD SWAP2 ADD PUSH2 0x258 JUMP JUMPDEST ADD AND ADD ADD SWAP1 JUMP JUMPDEST PUSH1 0x80 PUSH1 0x40 PUSH2 0x2EA SWAP4 PUSH1 0x20 DUP5 MSTORE DUP1 MLOAD PUSH1 0x20 DUP6 ADD MSTORE PUSH1 0x20 DUP2 ADD MLOAD DUP3 DUP6 ADD MSTORE ADD MLOAD SWAP2 PUSH1 0x60 DUP1 DUP3 ADD MSTORE ADD SWAP1 PUSH2 0x27B JUMP JUMPDEST SWAP1 JUMP JUMPDEST PUSH1 0x40 SWAP1 PUSH20 0xFFFFFFFFFFFFFFFFFFFFFFFFFFFFFFFFFFFFFFFF PUSH2 0x2EA SWAP5 SWAP4 AND DUP2 MSTORE DUP2 PUSH1 0x20 DUP3 ADD MSTORE ADD SWAP1 PUSH2 0x27B JUMP JUMPDEST SWAP3 DUP1 SWAP3 PUSH2 0x342 SWAP3 PUSH1 0x40 MLOAD SWAP6 PUSH2 0x32E DUP8 PUSH2 0x10E JUMP JUMPDEST DUP1 DUP8 MSTORE DUP2 PUSH1 0x20 DUP9 ADD MSTORE DUP3 PUSH1 0x40 DUP9 ADD MSTORE PUSH2 0x450 JUMP JUMPDEST DUP1 EXTCODESIZE PUSH2 0x434 JUMPI POP PUSH2 0x3B1 PUSH2 0x385 SWAP3 PUSH1 0x40 MLOAD SWAP4 DUP5 SWAP2 PUSH32 0x759A68C000000000000000000000000000000000000000000000000000000000 PUSH1 0x20 DUP5 ADD MSTORE PUSH1 0x24 DUP4 ADD PUSH2 0x2BE JUMP JUMPDEST SUB PUSH32 0xFFFFFFFFFFFFFFFFFFFFFFFFFFFFFFFFFFFFFFFFFFFFFFFFFFFFFFFFFFFFFFE0 DUP2 ADD DUP5 MSTORE DUP4 PUSH2 0x159 JUMP JUMPDEST PUSH1 0x40 MLOAD PUSH2 0x403 SWAP3 DUP4 DUP3 ADD SWAP4 DUP3 DUP6 LT PUSH8 0xFFFFFFFFFFFFFFFF DUP7 GT OR PUSH2 0x12A JUMPI DUP3 SWAP2 PUSH2 0x419 SWAP2 PUSH2 0x5A3 DUP5 CODECOPY PUSH20 0xFFFFFFFFFFFFFFFFFFFFFFFFFFFFFFFFFFFFFFFF SWAP6 DUP7 PUSH32 0x0 AND SWAP1 PUSH2 0x2ED JUMP JUMPDEST SUB SWAP1 PUSH1 0x0 CREATE2 DUP1 ISZERO PUSH2 0x428 JUMPI AND SWAP1 JUMP JUMPDEST PUSH1 0x40 MLOAD RETURNDATASIZE PUSH1 0x0 DUP3 RETURNDATACOPY RETURNDATASIZE SWAP1 REVERT JUMPDEST PUSH20 0xFFFFFFFFFFFFFFFFFFFFFFFFFFFFFFFFFFFFFFFF AND SWAP3 SWAP2 POP POP JUMP JUMPDEST SWAP3 PUSH1 0xB SWAP3 SWAP2 PUSH1 0x55 SWAP5 PUSH1 0x40 SWAP4 DUP5 MLOAD SWAP2 PUSH2 0x467 DUP4 PUSH2 0x10E JUMP JUMPDEST DUP3 MSTORE PUSH1 0x20 SWAP3 DUP4 DUP4 ADD MSTORE DUP5 DUP3 ADD MSTORE PUSH2 0x57E PUSH2 0x58A DUP4 PUSH2 0x403 SWAP4 PUSH2 0x4D0 DUP9 MLOAD SWAP2 PUSH2 0x491 DUP5 DUP9 ADD DUP5 PUSH2 0x159 JUMP JUMPDEST DUP7 DUP4 MSTORE DUP4 DUP4 ADD SWAP7 PUSH2 0x5A3 DUP9 CODECOPY DUP10 MLOAD SWAP2 DUP3 SWAP2 PUSH32 0x759A68C000000000000000000000000000000000000000000000000000000000 DUP7 DUP5 ADD MSTORE PUSH1 0x24 DUP4 ADD PUSH2 0x2BE JUMP JUMPDEST SUB PUSH2 0x501 PUSH32 0xFFFFFFFFFFFFFFFFFFFFFFFFFFFFFFFFFFFFFFFFFFFFFFFFFFFFFFFFFFFFFFE0 SWAP2 DUP3 DUP2 ADD DUP5 MSTORE DUP4 PUSH2 0x159 JUMP JUMPDEST PUSH2 0x558 DUP11 MLOAD SWAP2 DUP3 PUSH2 0x54C DUP8 DUP3 ADD SWAP6 PUSH20 0xFFFFFFFFFFFFFFFFFFFFFFFFFFFFFFFFFFFFFFFF PUSH32 0x0 AND DUP8 PUSH2 0x2ED JUMP JUMPDEST SUB SWAP1 DUP2 ADD DUP4 MSTORE DUP3 PUSH2 0x159 JUMP JUMPDEST DUP10 MLOAD SWAP6 DUP7 SWAP4 PUSH2 0x56F DUP7 DUP7 ADD SWAP10 DUP11 SWAP3 MLOAD SWAP3 DUP4 SWAP2 PUSH2 0x258 JUMP JUMPDEST DUP5 ADD SWAP2 MLOAD DUP1 SWAP4 DUP7 DUP5 ADD SWAP1 PUSH2 0x258 JUMP JUMPDEST ADD SUB DUP1 DUP5 MSTORE ADD DUP3 PUSH2 0x159 JUMP JUMPDEST MLOAD SWAP1 KECCAK256 DUP4 MLOAD SWAP4 DUP5 ADD MSTORE DUP3 ADD MSTORE ADDRESS DUP2 MSTORE ADD PUSH1 0xFF DUP2 MSTORE8 KECCAK256 SWAP1 JUMP INVALID PUSH1 0x40 PUSH1 0x80 DUP2 MSTORE PUSH2 0x403 SWAP1 DUP2 CODESIZE SUB DUP1 PUSH2 0x16 DUP2 PUSH2 0x218 JUMP JUMPDEST SWAP4 DUP5 CODECOPY DUP3 ADD SWAP2 DUP2 DUP2 DUP5 SUB SLT PUSH2 0x213 JUMPI DUP1 MLOAD PUSH1 0x1 PUSH1 0x1 PUSH1 0xA0 SHL SUB DUP2 AND DUP1 DUP3 SUB PUSH2 0x213 JUMPI PUSH1 0x20 DUP4 DUP2 ADD MLOAD PUSH1 0x1 PUSH1 0x1 PUSH1 0x40 SHL SUB SWAP5 SWAP2 SWAP4 SWAP2 DUP6 DUP3 GT PUSH2 0x213 JUMPI ADD DUP7 PUSH1 0x1F DUP3 ADD SLT ISZERO PUSH2 0x213 JUMPI DUP1 MLOAD SWAP1 PUSH2 0x71 PUSH2 0x6C DUP4 PUSH2 0x253 JUMP JUMPDEST PUSH2 0x218 JUMP JUMPDEST SWAP2 DUP1 DUP4 MSTORE DUP6 DUP4 ADD SWAP9 DUP7 DUP3 DUP5 ADD ADD GT PUSH2 0x213 JUMPI DUP9 DUP7 PUSH2 0x8F SWAP4 ADD PUSH2 0x26E JUMP JUMPDEST DUP2 EXTCODESIZE ISZERO PUSH2 0x1B9 JUMPI PUSH32 0x360894A13BA1A3210667C828492DB98DCA3E2076CC3735A920A3CA505D382BBC DUP1 SLOAD PUSH1 0x1 PUSH1 0x1 PUSH1 0xA0 SHL SUB NOT AND DUP5 OR SWAP1 SSTORE PUSH1 0x0 SWAP3 PUSH32 0xBC7CD75A20EE27FD9ADEBAB32041F755214DBC6BFFA90CC0225B39DA2E5C2D3B DUP5 DUP1 LOG2 DUP1 MLOAD ISZERO DUP1 ISZERO SWAP1 PUSH2 0x1B2 JUMPI JUMPDEST PUSH2 0x10B JUMPI JUMPDEST DUP6 MLOAD PUSH1 0xBE SWAP1 DUP2 PUSH2 0x345 DUP3 CODECOPY RETURN JUMPDEST DUP6 MLOAD SWAP5 PUSH1 0x60 DUP7 ADD SWAP1 DUP2 GT DUP7 DUP3 LT OR PUSH2 0x19E JUMPI DUP7 SWAP8 DUP5 SWAP3 DUP4 SWAP3 PUSH2 0x188 SWAP10 MSTORE PUSH1 0x27 DUP9 MSTORE PUSH32 0x416464726573733A206C6F772D6C6576656C2064656C65676174652063616C6C DUP8 DUP10 ADD MSTORE PUSH7 0x819985A5B1959 PUSH1 0xCA SHL DUP11 DUP10 ADD MSTORE MLOAD SWAP1 DUP5 GAS DELEGATECALL SWAP2 RETURNDATASIZE ISZERO PUSH2 0x194 JUMPI RETURNDATASIZE SWAP1 PUSH2 0x17A PUSH2 0x6C DUP4 PUSH2 0x253 JUMP JUMPDEST SWAP2 DUP3 MSTORE DUP2 SWAP5 RETURNDATASIZE SWAP3 ADD RETURNDATACOPY PUSH2 0x291 JUMP JUMPDEST POP DUP1 CODESIZE DUP1 DUP1 DUP1 DUP1 PUSH2 0xFE JUMP JUMPDEST POP PUSH1 0x60 SWAP3 POP PUSH2 0x291 JUMP JUMPDEST PUSH4 0x4E487B71 PUSH1 0xE0 SHL DUP5 MSTORE PUSH1 0x41 PUSH1 0x4 MSTORE PUSH1 0x24 DUP5 REVERT JUMPDEST POP DUP3 PUSH2 0xF9 JUMP JUMPDEST DUP6 MLOAD PUSH3 0x461BCD PUSH1 0xE5 SHL DUP2 MSTORE PUSH1 0x4 DUP2 ADD DUP6 SWAP1 MSTORE PUSH1 0x2D PUSH1 0x24 DUP3 ADD MSTORE PUSH32 0x455243313936373A206E657720696D706C656D656E746174696F6E206973206E PUSH1 0x44 DUP3 ADD MSTORE PUSH13 0x1BDD08184818DBDB9D1C9858DD PUSH1 0x9A SHL PUSH1 0x64 DUP3 ADD MSTORE PUSH1 0x84 SWAP1 REVERT JUMPDEST PUSH1 0x0 DUP1 REVERT JUMPDEST PUSH1 0x40 MLOAD SWAP2 SWAP1 PUSH1 0x1F ADD PUSH1 0x1F NOT AND DUP3 ADD PUSH1 0x1 PUSH1 0x1 PUSH1 0x40 SHL SUB DUP2 GT DUP4 DUP3 LT OR PUSH2 0x23D JUMPI PUSH1 0x40 MSTORE JUMP JUMPDEST PUSH4 0x4E487B71 PUSH1 0xE0 SHL PUSH1 0x0 MSTORE PUSH1 0x41 PUSH1 0x4 MSTORE PUSH1 0x24 PUSH1 0x0 REVERT JUMPDEST PUSH1 0x1 PUSH1 0x1 PUSH1 0x40 SHL SUB DUP2 GT PUSH2 0x23D JUMPI PUSH1 0x1F ADD PUSH1 0x1F NOT AND PUSH1 0x20 ADD SWAP1 JUMP JUMPDEST PUSH1 0x0 JUMPDEST DUP4 DUP2 LT PUSH2 0x281 JUMPI POP POP PUSH1 0x0 SWAP2 ADD MSTORE JUMP JUMPDEST DUP2 DUP2 ADD MLOAD DUP4 DUP3 ADD MSTORE PUSH1 0x20 ADD PUSH2 0x271 JUMP JUMPDEST SWAP2 SWAP3 SWAP1 ISZERO PUSH2 0x2F3 JUMPI POP DUP2 MLOAD ISZERO PUSH2 0x2A5 JUMPI POP SWAP1 JUMP JUMPDEST EXTCODESIZE ISZERO PUSH2 0x2AE JUMPI SWAP1 JUMP JUMPDEST PUSH1 0x40 MLOAD PUSH3 0x461BCD PUSH1 0xE5 SHL DUP2 MSTORE PUSH1 0x20 PUSH1 0x4 DUP3 ADD MSTORE PUSH1 0x1D PUSH1 0x24 DUP3 ADD MSTORE PUSH32 0x416464726573733A2063616C6C20746F206E6F6E2D636F6E7472616374000000 PUSH1 0x44 DUP3 ADD MSTORE PUSH1 0x64 SWAP1 REVERT JUMPDEST DUP3 MLOAD SWAP1 SWAP2 POP ISZERO PUSH2 0x306 JUMPI POP DUP1 MLOAD SWAP1 PUSH1 0x20 ADD REVERT JUMPDEST PUSH1 0x44 PUSH1 0x40 MLOAD DUP1 SWAP3 PUSH3 0x461BCD PUSH1 0xE5 SHL DUP3 MSTORE PUSH1 0x20 PUSH1 0x4 DUP4 ADD MSTORE PUSH2 0x336 DUP2 MLOAD DUP1 SWAP3 DUP2 PUSH1 0x24 DUP7 ADD MSTORE PUSH1 0x20 DUP7 DUP7 ADD SWAP2 ADD PUSH2 0x26E JUMP JUMPDEST PUSH1 0x1F ADD PUSH1 0x1F NOT AND DUP2 ADD SUB ADD SWAP1 REVERT INVALID PUSH1 0x80 PUSH1 0x40 MSTORE CALLDATASIZE ISZERO PUSH1 0x5F JUMPI PUSH20 0xFFFFFFFFFFFFFFFFFFFFFFFFFFFFFFFFFFFFFFFF PUSH32 0x360894A13BA1A3210667C828492DB98DCA3E2076CC3735A920A3CA505D382BBC SLOAD AND PUSH1 0x0 DUP1 DUP1 SWAP3 CALLDATASIZE DUP3 DUP1 CALLDATACOPY DUP2 CALLDATASIZE SWAP2 GAS DELEGATECALL RETURNDATASIZE DUP3 DUP1 RETURNDATACOPY ISZERO PUSH1 0x5B JUMPI RETURNDATASIZE SWAP1 RETURN JUMPDEST RETURNDATASIZE SWAP1 REVERT JUMPDEST PUSH20 0xFFFFFFFFFFFFFFFFFFFFFFFFFFFFFFFFFFFFFFFF PUSH32 0x360894A13BA1A3210667C828492DB98DCA3E2076CC3735A920A3CA505D382BBC SLOAD AND PUSH1 0x0 DUP1 DUP1 SWAP3 CALLDATASIZE DUP3 DUP1 CALLDATACOPY DUP2 CALLDATASIZE SWAP2 GAS DELEGATECALL RETURNDATASIZE DUP3 DUP1 RETURNDATACOPY ISZERO PUSH1 0x5B JUMPI RETURNDATASIZE SWAP1 RETURN INVALID LOG1 PUSH5 0x736F6C6343 STOP ADDMOD SGT STOP EXP LOG1 PUSH5 0x736F6C6343 STOP ADDMOD SGT STOP EXP PUSH1 0x80 DUP1 PUSH1 0x40 MSTORE CALLVALUE PUSH2 0xC1 JUMPI PUSH1 0x0 SLOAD SWAP1 PUSH1 0xFF DUP3 PUSH1 0x8 SHR AND PUSH2 0x6F JUMPI POP PUSH1 0xFF DUP1 DUP3 AND SUB PUSH2 0x34 JUMPI JUMPDEST PUSH1 0x40 MLOAD PUSH2 0x2425 SWAP1 DUP2 PUSH2 0xC7 DUP3 CODECOPY RETURN JUMPDEST PUSH1 0xFF SWAP1 DUP2 NOT AND OR PUSH1 0x0 SSTORE PUSH32 0x7F26B83FF96E1F2B6A682F133852F6798A09C465DA95921460CEFB3847402498 PUSH1 0x20 PUSH1 0x40 MLOAD PUSH1 0xFF DUP2 MSTORE LOG1 CODESIZE PUSH2 0x25 JUMP JUMPDEST PUSH3 0x461BCD PUSH1 0xE5 SHL DUP2 MSTORE PUSH1 0x20 PUSH1 0x4 DUP3 ADD MSTORE PUSH1 0x27 PUSH1 0x24 DUP3 ADD MSTORE PUSH32 0x496E697469616C697A61626C653A20636F6E747261637420697320696E697469 PUSH1 0x44 DUP3 ADD MSTORE PUSH7 0x616C697A696E67 PUSH1 0xC8 SHL PUSH1 0x64 DUP3 ADD MSTORE PUSH1 0x84 SWAP1 REVERT JUMPDEST PUSH1 0x0 DUP1 REVERT INVALID PUSH1 0x80 PUSH1 0x40 MSTORE PUSH1 0x4 CALLDATASIZE LT ISZERO PUSH2 0x1B JUMPI JUMPDEST CALLDATASIZE ISZERO PUSH2 0x19 JUMPI PUSH1 0x0 DUP1 REVERT JUMPDEST STOP JUMPDEST PUSH1 0x0 DUP1 CALLDATALOAD PUSH1 0xE0 SHR SWAP1 DUP2 PUSH4 0x759A68C0 EQ PUSH2 0x8E JUMPI POP DUP1 PUSH4 0x8FB41072 EQ PUSH2 0x89 JUMPI DUP1 PUSH4 0xB627E20F EQ PUSH2 0x84 JUMPI DUP1 PUSH4 0xBE9EF843 EQ PUSH2 0x7F JUMPI DUP1 PUSH4 0xD087D288 EQ PUSH2 0x7A JUMPI DUP1 PUSH4 0xF0F05CEF EQ PUSH2 0x75 JUMPI PUSH4 0xFD5C8D72 SUB PUSH2 0xE JUMPI PUSH2 0x55A JUMP JUMPDEST PUSH2 0x475 JUMP JUMPDEST PUSH2 0x3E9 JUMP JUMPDEST PUSH2 0x3A8 JUMP JUMPDEST PUSH2 0x353 JUMP JUMPDEST PUSH2 0x296 JUMP JUMPDEST CALLVALUE PUSH2 0x13E JUMPI PUSH32 0xFFFFFFFFFFFFFFFFFFFFFFFFFFFFFFFFFFFFFFFFFFFFFFFFFFFFFFFFFFFFFFFC PUSH1 0x20 DUP2 CALLDATASIZE ADD SLT PUSH2 0x132 JUMPI PUSH1 0x4 CALLDATALOAD PUSH8 0xFFFFFFFFFFFFFFFF SWAP2 DUP3 DUP3 GT PUSH2 0x13A JUMPI PUSH1 0x60 SWAP1 DUP3 CALLDATASIZE SUB ADD SLT PUSH2 0x136 JUMPI PUSH2 0xE8 PUSH1 0xE0 PUSH1 0x40 MSTORE JUMP JUMPDEST DUP1 PUSH1 0x4 ADD CALLDATALOAD PUSH1 0x80 MSTORE PUSH1 0x24 DUP2 ADD CALLDATALOAD PUSH1 0xA0 MSTORE PUSH1 0x44 DUP2 ADD CALLDATALOAD SWAP2 DUP3 GT PUSH2 0x136 JUMPI ADD CALLDATASIZE PUSH1 0x23 DUP3 ADD SLT ISZERO PUSH2 0x132 JUMPI PUSH2 0x124 SWAP1 CALLDATASIZE SWAP1 PUSH1 0x24 PUSH1 0x4 DUP3 ADD CALLDATALOAD SWAP2 ADD PUSH2 0x237 JUMP JUMPDEST PUSH1 0xC0 MSTORE PUSH2 0x12F PUSH2 0x6D1 JUMP JUMPDEST DUP1 RETURN JUMPDEST POP DUP1 REVERT JUMPDEST DUP3 DUP1 REVERT JUMPDEST DUP4 DUP1 REVERT JUMPDEST DUP1 REVERT JUMPDEST PUSH32 0x4E487B7100000000000000000000000000000000000000000000000000000000 PUSH1 0x0 MSTORE PUSH1 0x41 PUSH1 0x4 MSTORE PUSH1 0x24 PUSH1 0x0 REVERT JUMPDEST PUSH1 0x60 DUP2 ADD SWAP1 DUP2 LT PUSH8 0xFFFFFFFFFFFFFFFF DUP3 GT OR PUSH2 0x18C JUMPI PUSH1 0x40 MSTORE JUMP JUMPDEST PUSH2 0x141 JUMP JUMPDEST PUSH1 0x80 DUP2 ADD SWAP1 DUP2 LT PUSH8 0xFFFFFFFFFFFFFFFF DUP3 GT OR PUSH2 0x18C JUMPI PUSH1 0x40 MSTORE JUMP JUMPDEST SWAP1 PUSH1 0x1F PUSH32 0xFFFFFFFFFFFFFFFFFFFFFFFFFFFFFFFFFFFFFFFFFFFFFFFFFFFFFFFFFFFFFFE0 SWAP2 ADD AND DUP2 ADD SWAP1 DUP2 LT PUSH8 0xFFFFFFFFFFFFFFFF DUP3 GT OR PUSH2 0x18C JUMPI PUSH1 0x40 MSTORE JUMP JUMPDEST PUSH1 0x40 MLOAD SWAP1 PUSH2 0x1FB DUP3 PUSH2 0x170 JUMP JUMPDEST JUMP JUMPDEST PUSH8 0xFFFFFFFFFFFFFFFF DUP2 GT PUSH2 0x18C JUMPI PUSH1 0x1F ADD PUSH32 0xFFFFFFFFFFFFFFFFFFFFFFFFFFFFFFFFFFFFFFFFFFFFFFFFFFFFFFFFFFFFFFE0 AND PUSH1 0x20 ADD SWAP1 JUMP JUMPDEST SWAP3 SWAP2 SWAP3 PUSH2 0x243 DUP3 PUSH2 0x1FD JUMP JUMPDEST SWAP2 PUSH2 0x251 PUSH1 0x40 MLOAD SWAP4 DUP5 PUSH2 0x1AD JUMP JUMPDEST DUP3 SWAP5 DUP2 DUP5 MSTORE DUP2 DUP4 ADD GT PUSH2 0x26E JUMPI DUP3 DUP2 PUSH1 0x20 SWAP4 DUP5 PUSH1 0x0 SWAP7 ADD CALLDATACOPY ADD ADD MSTORE JUMP JUMPDEST PUSH1 0x0 DUP1 REVERT JUMPDEST PUSH1 0x0 JUMPDEST DUP4 DUP2 LT PUSH2 0x286 JUMPI POP POP PUSH1 0x0 SWAP2 ADD MSTORE JUMP JUMPDEST DUP2 DUP2 ADD MLOAD DUP4 DUP3 ADD MSTORE PUSH1 0x20 ADD PUSH2 0x276 JUMP JUMPDEST CALLVALUE PUSH2 0x26E JUMPI PUSH1 0x0 PUSH32 0xFFFFFFFFFFFFFFFFFFFFFFFFFFFFFFFFFFFFFFFFFFFFFFFFFFFFFFFFFFFFFFFC CALLDATASIZE ADD SLT PUSH2 0x26E JUMPI PUSH1 0x60 PUSH1 0x40 DUP1 MLOAD PUSH2 0x2D4 DUP2 PUSH2 0x170 JUMP JUMPDEST PUSH1 0x0 DUP2 MSTORE PUSH1 0x0 PUSH1 0x20 DUP3 ADD MSTORE ADD MSTORE PUSH1 0x40 PUSH1 0xA0 PUSH2 0x2ED PUSH2 0x5CD JUMP JUMPDEST PUSH32 0xFFFFFFFFFFFFFFFFFFFFFFFFFFFFFFFFFFFFFFFFFFFFFFFFFFFFFFFFFFFFFFE0 PUSH1 0x1F DUP5 MLOAD SWAP5 DUP6 SWAP4 PUSH1 0x20 DUP6 MSTORE DUP1 MLOAD PUSH1 0x20 DUP7 ADD MSTORE PUSH1 0x20 DUP2 ADD MLOAD DUP3 DUP7 ADD MSTORE ADD MLOAD PUSH1 0x60 DUP1 DUP6 ADD MSTORE PUSH2 0x34A DUP2 MLOAD DUP1 SWAP3 DUP2 PUSH1 0x80 DUP9 ADD MSTORE PUSH1 0x20 DUP9 DUP9 ADD SWAP2 ADD PUSH2 0x273 JUMP JUMPDEST ADD AND DUP2 ADD SUB ADD SWAP1 RETURN JUMPDEST CALLVALUE PUSH2 0x26E JUMPI PUSH1 0x0 PUSH32 0xFFFFFFFFFFFFFFFFFFFFFFFFFFFFFFFFFFFFFFFFFFFFFFFFFFFFFFFFFFFFFFFC CALLDATASIZE ADD SLT PUSH2 0x26E JUMPI PUSH1 0x20 PUSH20 0xFFFFFFFFFFFFFFFFFFFFFFFFFFFFFFFFFFFFFFFF PUSH1 0x0 SLOAD PUSH1 0x10 SHR AND PUSH1 0x40 MLOAD SWAP1 DUP2 MSTORE RETURN JUMPDEST CALLVALUE PUSH2 0x26E JUMPI PUSH1 0x0 PUSH32 0xFFFFFFFFFFFFFFFFFFFFFFFFFFFFFFFFFFFFFFFFFFFFFFFFFFFFFFFFFFFFFFFC CALLDATASIZE ADD SLT PUSH2 0x26E JUMPI PUSH1 0x20 PUSH1 0xFF PUSH1 0x4 SLOAD AND PUSH1 0x40 MLOAD SWAP1 ISZERO ISZERO DUP2 MSTORE RETURN JUMPDEST CALLVALUE PUSH2 0x26E JUMPI PUSH1 0x0 PUSH32 0xFFFFFFFFFFFFFFFFFFFFFFFFFFFFFFFFFFFFFFFFFFFFFFFFFFFFFFFFFFFFFFFC CALLDATASIZE ADD SLT PUSH2 0x26E JUMPI PUSH1 0x20 PUSH1 0x5 SLOAD PUSH1 0x40 MLOAD SWAP1 DUP2 MSTORE RETURN JUMPDEST PUSH32 0xFFFFFFFFFFFFFFFFFFFFFFFFFFFFFFFFFFFFFFFFFFFFFFFFFFFFFFFFFFFFFFFC SWAP1 PUSH1 0x20 DUP3 DUP3 ADD SLT PUSH2 0x26E JUMPI PUSH1 0x4 CALLDATALOAD SWAP2 PUSH8 0xFFFFFFFFFFFFFFFF DUP4 GT PUSH2 0x26E JUMPI DUP3 PUSH1 0x80 SWAP3 SUB ADD SLT PUSH2 0x26E JUMPI PUSH1 0x4 ADD SWAP1 JUMP JUMPDEST CALLVALUE PUSH2 0x26E JUMPI PUSH2 0x483 CALLDATASIZE PUSH2 0x425 JUMP JUMPDEST PUSH2 0x495 PUSH2 0x48F DUP3 PUSH2 0x14A6 JUMP JUMPDEST ISZERO PUSH2 0xB9A JUMP JUMPDEST PUSH2 0x4A7 PUSH2 0x4A1 DUP3 PUSH2 0x184F JUMP JUMPDEST ISZERO PUSH2 0xC25 JUMP JUMPDEST PUSH1 0x3 DUP2 CALLDATALOAD DUP1 ISZERO PUSH2 0x53D JUMPI JUMPDEST PUSH1 0x1 DUP2 EQ PUSH2 0x520 JUMPI JUMPDEST PUSH1 0x2 DUP2 EQ PUSH2 0x503 JUMPI JUMPDEST EQ PUSH2 0x4DD JUMPI JUMPDEST PUSH2 0x19 PUSH2 0x4D8 PUSH1 0x5 SLOAD PUSH2 0xD30 JUMP JUMPDEST PUSH1 0x5 SSTORE JUMP JUMPDEST PUSH2 0x4F8 PUSH2 0x4F1 DUP3 PUSH1 0x20 PUSH2 0x4FD SWAP5 ADD SWAP1 PUSH2 0xCB0 JUMP JUMPDEST CALLDATASIZE SWAP2 PUSH2 0x237 JUMP JUMPDEST PUSH2 0xEE4 JUMP JUMPDEST CODESIZE PUSH2 0x4CA JUMP JUMPDEST PUSH2 0x51B PUSH2 0x516 PUSH2 0x4F1 PUSH1 0x20 DUP7 ADD DUP7 PUSH2 0xCB0 JUMP JUMPDEST PUSH2 0xD67 JUMP JUMPDEST PUSH2 0x4C4 JUMP JUMPDEST PUSH2 0x538 PUSH2 0x533 PUSH2 0x4F1 PUSH1 0x20 DUP7 ADD DUP7 PUSH2 0xCB0 JUMP JUMPDEST PUSH2 0x133D JUMP JUMPDEST PUSH2 0x4BB JUMP JUMPDEST PUSH2 0x555 PUSH2 0x550 PUSH2 0x4F1 PUSH1 0x20 DUP7 ADD DUP7 PUSH2 0xCB0 JUMP JUMPDEST PUSH2 0x104C JUMP JUMPDEST PUSH2 0x4B2 JUMP JUMPDEST CALLVALUE PUSH2 0x26E JUMPI PUSH1 0x20 PUSH2 0x572 PUSH2 0x56D CALLDATASIZE PUSH2 0x425 JUMP JUMPDEST PUSH2 0x1A8D JUMP JUMPDEST PUSH1 0x40 MLOAD SWAP1 DUP2 MSTORE RETURN JUMPDEST SWAP1 PUSH1 0x1 DUP3 DUP2 SHR SWAP3 AND DUP1 ISZERO PUSH2 0x5C3 JUMPI JUMPDEST PUSH1 0x20 DUP4 LT EQ PUSH2 0x594 JUMPI JUMP JUMPDEST PUSH32 0x4E487B7100000000000000000000000000000000000000000000000000000000 PUSH1 0x0 MSTORE PUSH1 0x22 PUSH1 0x4 MSTORE PUSH1 0x24 PUSH1 0x0 REVERT JUMPDEST SWAP2 PUSH1 0x7F AND SWAP2 PUSH2 0x589 JUMP JUMPDEST PUSH1 0x40 MLOAD SWAP1 PUSH2 0x5DA DUP3 PUSH2 0x170 JUMP JUMPDEST DUP2 PUSH1 0x1 SWAP1 DUP2 SLOAD DUP2 MSTORE PUSH1 0x2 SLOAD PUSH1 0x20 SWAP1 DUP2 DUP4 ADD MSTORE PUSH1 0x40 MLOAD SWAP3 DUP4 SWAP2 PUSH1 0x0 SWAP2 PUSH1 0x3 SLOAD SWAP1 PUSH2 0x602 DUP3 PUSH2 0x57A JUMP JUMPDEST DUP1 DUP7 MSTORE SWAP2 DUP2 DUP2 AND SWAP1 DUP2 ISZERO PUSH2 0x694 JUMPI POP PUSH1 0x1 EQ PUSH2 0x62F JUMPI JUMPDEST POP POP POP PUSH1 0x40 SWAP3 SWAP2 PUSH2 0x62B SWAP2 SUB DUP5 PUSH2 0x1AD JUMP JUMPDEST ADD MSTORE JUMP JUMPDEST SWAP1 SWAP5 SWAP4 SWAP3 POP PUSH1 0x3 PUSH1 0x0 MSTORE PUSH32 0xC2575A0E9E593C00F959F8C92F12DB2869C3395A3B0502D05E2516446F71F85B SWAP5 PUSH1 0x0 SWAP2 JUMPDEST DUP2 DUP4 LT PUSH2 0x67C JUMPI POP SWAP4 SWAP5 POP SWAP2 SWAP3 POP SWAP1 DUP3 ADD ADD DUP2 PUSH2 0x62B PUSH1 0x40 PUSH2 0x619 JUMP JUMPDEST DUP7 SLOAD DUP9 DUP5 ADD DUP6 ADD MSTORE SWAP6 DUP7 ADD SWAP6 DUP8 SWAP5 POP SWAP2 DUP4 ADD SWAP2 PUSH2 0x65F JUMP JUMPDEST PUSH32 0xFFFFFFFFFFFFFFFFFFFFFFFFFFFFFFFFFFFFFFFFFFFFFFFFFFFFFFFFFFFFFF00 AND DUP5 DUP8 ADD MSTORE POP POP ISZERO ISZERO PUSH1 0x5 SHL DUP4 ADD ADD SWAP1 POP DUP2 PUSH2 0x62B PUSH1 0x40 PUSH2 0x619 JUMP JUMPDEST PUSH1 0x0 SLOAD PUSH1 0xFF DUP2 PUSH1 0x8 SHR AND ISZERO DUP1 SWAP2 DUP2 SWAP3 PUSH2 0x86C JUMPI JUMPDEST DUP2 ISZERO PUSH2 0x84C JUMPI JUMPDEST POP ISZERO PUSH2 0x7C8 JUMPI DUP1 PUSH2 0x723 PUSH1 0x1 PUSH32 0xFFFFFFFFFFFFFFFFFFFFFFFFFFFFFFFFFFFFFFFFFFFFFFFFFFFFFFFFFFFFFF00 PUSH1 0x0 SLOAD AND OR PUSH1 0x0 SSTORE JUMP JUMPDEST PUSH2 0x792 JUMPI JUMPDEST PUSH2 0x730 PUSH2 0x87A JUMP JUMPDEST PUSH2 0x736 JUMPI JUMP JUMPDEST PUSH2 0x763 PUSH32 0xFFFFFFFFFFFFFFFFFFFFFFFFFFFFFFFFFFFFFFFFFFFFFFFFFFFFFFFFFFFF00FF PUSH1 0x0 SLOAD AND PUSH1 0x0 SSTORE JUMP JUMPDEST PUSH1 0x40 MLOAD PUSH1 0x1 DUP2 MSTORE PUSH32 0x7F26B83FF96E1F2B6A682F133852F6798A09C465DA95921460CEFB3847402498 SWAP1 PUSH1 0x20 SWAP1 LOG1 JUMP JUMPDEST PUSH2 0x7C3 PUSH2 0x100 PUSH32 0xFFFFFFFFFFFFFFFFFFFFFFFFFFFFFFFFFFFFFFFFFFFFFFFFFFFFFFFFFFFF00FF PUSH1 0x0 SLOAD AND OR PUSH1 0x0 SSTORE JUMP JUMPDEST PUSH2 0x728 JUMP JUMPDEST PUSH1 0x84 PUSH1 0x40 MLOAD PUSH32 0x8C379A000000000000000000000000000000000000000000000000000000000 DUP2 MSTORE PUSH1 0x20 PUSH1 0x4 DUP3 ADD MSTORE PUSH1 0x2E PUSH1 0x24 DUP3 ADD MSTORE PUSH32 0x496E697469616C697A61626C653A20636F6E747261637420697320616C726561 PUSH1 0x44 DUP3 ADD MSTORE PUSH32 0x647920696E697469616C697A6564000000000000000000000000000000000000 PUSH1 0x64 DUP3 ADD MSTORE REVERT JUMPDEST ADDRESS EXTCODESIZE ISZERO SWAP2 POP DUP2 PUSH2 0x85E JUMPI JUMPDEST POP CODESIZE PUSH2 0x6EC JUMP JUMPDEST PUSH1 0x1 SWAP2 POP PUSH1 0xFF AND EQ CODESIZE PUSH2 0x857 JUMP JUMPDEST PUSH1 0x1 PUSH1 0xFF DUP3 AND LT SWAP2 POP PUSH2 0x6E5 JUMP JUMPDEST PUSH1 0x1 DUP1 PUSH32 0xFFFFFFFFFFFFFFFFFFFFFFFFFFFFFFFFFFFFFFFFFFFFFFFFFFFFFFFFFFFFFF00 PUSH1 0x4 SLOAD AND OR PUSH1 0x4 SSTORE PUSH1 0x80 MLOAD DUP2 SSTORE PUSH1 0xA0 MLOAD PUSH1 0x2 SSTORE PUSH1 0xC0 MLOAD SWAP1 DUP2 MLOAD SWAP2 PUSH8 0xFFFFFFFFFFFFFFFF DUP4 GT PUSH2 0x18C JUMPI PUSH2 0x8DB DUP4 PUSH2 0x8D6 PUSH1 0x3 SLOAD PUSH2 0x57A JUMP JUMPDEST PUSH2 0xA1A JUMP JUMPDEST PUSH1 0x20 SWAP1 DUP2 PUSH1 0x1F DUP6 GT PUSH1 0x1 EQ PUSH2 0x954 JUMPI POP PUSH1 0x0 SWAP2 DUP5 SWAP2 DUP3 PUSH2 0x929 JUMPI JUMPDEST POP POP PUSH32 0xFFFFFFFFFFFFFFFFFFFFFFFFFFFFFFFFFFFFFFFFFFFFFFFFFFFFFFFFFFFFFFFF SWAP2 SWAP3 SHL SWAP3 PUSH1 0x3 SHL SHR NOT AND OR PUSH1 0x3 SSTORE JUMP JUMPDEST ADD MLOAD SWAP2 POP PUSH32 0xFFFFFFFFFFFFFFFFFFFFFFFFFFFFFFFFFFFFFFFFFFFFFFFFFFFFFFFFFFFFFFFF CODESIZE PUSH2 0x8F6 JUMP JUMPDEST SWAP2 SWAP1 DUP5 PUSH32 0xFFFFFFFFFFFFFFFFFFFFFFFFFFFFFFFFFFFFFFFFFFFFFFFFFFFFFFFFFFFFFFE0 DUP2 SWAP6 SWAP7 AND PUSH2 0x9A8 PUSH1 0x3 PUSH1 0x0 MSTORE PUSH32 0xC2575A0E9E593C00F959F8C92F12DB2869C3395A3B0502D05E2516446F71F85B SWAP1 JUMP JUMPDEST SWAP5 PUSH1 0x0 SWAP1 JUMPDEST DUP9 DUP4 DUP4 LT PUSH2 0xA00 JUMPI POP POP POP LT PUSH2 0x9C9 JUMPI JUMPDEST POP POP POP DUP2 SHL ADD PUSH1 0x3 SSTORE JUMP JUMPDEST ADD MLOAD PUSH32 0xFFFFFFFFFFFFFFFFFFFFFFFFFFFFFFFFFFFFFFFFFFFFFFFFFFFFFFFFFFFFFFFF PUSH1 0xF8 DUP5 PUSH1 0x3 SHL AND SHR NOT AND SWAP1 SSTORE CODESIZE DUP1 DUP1 PUSH2 0x9BE JUMP JUMPDEST DUP6 DUP8 ADD MLOAD DUP9 SSTORE SWAP1 SWAP7 ADD SWAP6 SWAP5 DUP6 ADD SWAP5 DUP8 SWAP4 POP SWAP1 DUP2 ADD SWAP1 PUSH2 0x9AD JUMP JUMPDEST PUSH1 0x1F DUP2 GT PUSH2 0xA26 JUMPI POP POP JUMP JUMPDEST PUSH1 0x0 SWAP1 PUSH1 0x3 DUP3 MSTORE PUSH32 0xC2575A0E9E593C00F959F8C92F12DB2869C3395A3B0502D05E2516446F71F85B SWAP1 PUSH1 0x20 PUSH1 0x1F DUP6 ADD PUSH1 0x5 SHR DUP4 ADD SWAP5 LT PUSH2 0xA81 JUMPI JUMPDEST PUSH1 0x1F ADD PUSH1 0x5 SHR ADD SWAP2 JUMPDEST DUP3 DUP2 LT PUSH2 0xA76 JUMPI POP POP POP JUMP JUMPDEST DUP2 DUP2 SSTORE PUSH1 0x1 ADD PUSH2 0xA6A JUMP JUMPDEST SWAP1 SWAP3 POP DUP3 SWAP1 PUSH2 0xA61 JUMP JUMPDEST DUP1 MLOAD PUSH1 0x1 SWAP1 DUP2 SSTORE PUSH1 0x40 PUSH1 0x20 SWAP3 DUP4 DUP2 ADD MLOAD PUSH1 0x2 SSTORE ADD MLOAD SWAP2 DUP3 MLOAD SWAP3 PUSH8 0xFFFFFFFFFFFFFFFF DUP5 GT PUSH2 0x18C JUMPI PUSH2 0xAC2 DUP5 PUSH2 0x8D6 PUSH1 0x3 SLOAD PUSH2 0x57A JUMP JUMPDEST DUP2 PUSH1 0x1F DUP6 GT PUSH1 0x1 EQ PUSH2 0xB0C JUMPI POP PUSH1 0x0 SWAP2 DUP5 SWAP2 DUP3 PUSH2 0x929 JUMPI POP POP PUSH32 0xFFFFFFFFFFFFFFFFFFFFFFFFFFFFFFFFFFFFFFFFFFFFFFFFFFFFFFFFFFFFFFFF SWAP2 SWAP3 SHL SWAP3 PUSH1 0x3 SHL SHR NOT AND OR PUSH1 0x3 SSTORE JUMP JUMPDEST SWAP2 SWAP1 DUP5 PUSH32 0xFFFFFFFFFFFFFFFFFFFFFFFFFFFFFFFFFFFFFFFFFFFFFFFFFFFFFFFFFFFFFFE0 DUP2 SWAP6 SWAP7 AND PUSH2 0xB60 PUSH1 0x3 PUSH1 0x0 MSTORE PUSH32 0xC2575A0E9E593C00F959F8C92F12DB2869C3395A3B0502D05E2516446F71F85B SWAP1 JUMP JUMPDEST SWAP5 PUSH1 0x0 SWAP1 JUMPDEST DUP9 DUP4 DUP4 LT PUSH2 0xB80 JUMPI POP POP POP LT PUSH2 0x9C9 JUMPI POP POP POP DUP2 SHL ADD PUSH1 0x3 SSTORE JUMP JUMPDEST DUP6 DUP8 ADD MLOAD DUP9 SSTORE SWAP1 SWAP7 ADD SWAP6 SWAP5 DUP6 ADD SWAP5 DUP8 SWAP4 POP SWAP1 DUP2 ADD SWAP1 PUSH2 0xB65 JUMP JUMPDEST ISZERO PUSH2 0xBA1 JUMPI JUMP JUMPDEST PUSH1 0x84 PUSH1 0x40 MLOAD PUSH32 0x8C379A000000000000000000000000000000000000000000000000000000000 DUP2 MSTORE PUSH1 0x20 PUSH1 0x4 DUP3 ADD MSTORE PUSH1 0x26 PUSH1 0x24 DUP3 ADD MSTORE PUSH32 0x4163636F756E743A205369676E617475726520766572696669636174696F6E20 PUSH1 0x44 DUP3 ADD MSTORE PUSH32 0x6661696C65640000000000000000000000000000000000000000000000000000 PUSH1 0x64 DUP3 ADD MSTORE REVERT JUMPDEST ISZERO PUSH2 0xC2C JUMPI JUMP JUMPDEST PUSH1 0x84 PUSH1 0x40 MLOAD PUSH32 0x8C379A000000000000000000000000000000000000000000000000000000000 DUP2 MSTORE PUSH1 0x20 PUSH1 0x4 DUP3 ADD MSTORE PUSH1 0x22 PUSH1 0x24 DUP3 ADD MSTORE PUSH32 0x4163636F756E743A204E6F6E636520766572696669636174696F6E206661696C PUSH1 0x44 DUP3 ADD MSTORE PUSH32 0x6564000000000000000000000000000000000000000000000000000000000000 PUSH1 0x64 DUP3 ADD MSTORE REVERT JUMPDEST SWAP1 CALLDATALOAD SWAP1 PUSH32 0xFFFFFFFFFFFFFFFFFFFFFFFFFFFFFFFFFFFFFFFFFFFFFFFFFFFFFFFFFFFFFFE1 DUP2 CALLDATASIZE SUB ADD DUP3 SLT ISZERO PUSH2 0x26E JUMPI ADD DUP1 CALLDATALOAD SWAP1 PUSH8 0xFFFFFFFFFFFFFFFF DUP3 GT PUSH2 0x26E JUMPI PUSH1 0x20 ADD SWAP2 DUP2 CALLDATASIZE SUB DUP4 SGT PUSH2 0x26E JUMPI JUMP JUMPDEST PUSH32 0x4E487B7100000000000000000000000000000000000000000000000000000000 PUSH1 0x0 MSTORE PUSH1 0x11 PUSH1 0x4 MSTORE PUSH1 0x24 PUSH1 0x0 REVERT JUMPDEST SWAP1 PUSH1 0x1 DUP3 ADD DUP1 SWAP3 GT PUSH2 0xD3E JUMPI JUMP JUMPDEST PUSH2 0xD01 JUMP JUMPDEST PUSH1 0x40 MLOAD SWAP1 PUSH1 0x20 DUP3 ADD DUP3 DUP2 LT PUSH8 0xFFFFFFFFFFFFFFFF DUP3 GT OR PUSH2 0x18C JUMPI PUSH1 0x40 MSTORE PUSH1 0x0 DUP3 MSTORE JUMP JUMPDEST PUSH1 0x1 PUSH1 0xFF PUSH1 0x4 SLOAD AND ISZERO ISZERO SUB PUSH2 0xE1B JUMPI PUSH1 0x14 PUSH2 0xDEE SWAP2 ADD MLOAD PUSH2 0xDA6 PUSH2 0xD89 PUSH2 0x1EE JUMP JUMPDEST PUSH1 0x0 DUP2 MSTORE PUSH1 0x0 PUSH1 0x20 DUP3 ADD MSTORE PUSH2 0xD9C PUSH2 0xD43 JUMP JUMPDEST PUSH1 0x40 DUP3 ADD MSTORE PUSH2 0xA8B JUMP JUMPDEST PUSH32 0xFFFFFFFFFFFFFFFFFFFF0000000000000000000000000000000000000000FFFF PUSH22 0xFFFFFFFFFFFFFFFFFFFFFFFFFFFFFFFFFFFFFFFF0000 PUSH1 0x0 SLOAD SWAP3 PUSH1 0x10 SHL AND SWAP2 AND OR PUSH1 0x0 SSTORE JUMP JUMPDEST PUSH2 0x1FB PUSH32 0xFFFFFFFFFFFFFFFFFFFFFFFFFFFFFFFFFFFFFFFFFFFFFFFFFFFFFFFFFFFFFF00 PUSH1 0x4 SLOAD AND PUSH1 0x4 SSTORE JUMP JUMPDEST PUSH1 0x84 PUSH1 0x40 MLOAD PUSH32 0x8C379A000000000000000000000000000000000000000000000000000000000 DUP2 MSTORE PUSH1 0x20 PUSH1 0x4 DUP3 ADD MSTORE PUSH1 0x26 PUSH1 0x24 DUP3 ADD MSTORE PUSH32 0x4163636F756E743A20416C72656164792061646472657373206F776E65722065 PUSH1 0x44 DUP3 ADD MSTORE PUSH32 0x6E61626C65640000000000000000000000000000000000000000000000000000 PUSH1 0x64 DUP3 ADD MSTORE REVERT JUMPDEST DUP2 PUSH1 0x1F DUP3 ADD SLT ISZERO PUSH2 0x26E JUMPI DUP1 MLOAD PUSH2 0xEB5 DUP2 PUSH2 0x1FD JUMP JUMPDEST SWAP3 PUSH2 0xEC3 PUSH1 0x40 MLOAD SWAP5 DUP6 PUSH2 0x1AD JUMP JUMPDEST DUP2 DUP5 MSTORE PUSH1 0x20 DUP3 DUP5 ADD ADD GT PUSH2 0x26E JUMPI PUSH2 0xEE1 SWAP2 PUSH1 0x20 DUP1 DUP6 ADD SWAP2 ADD PUSH2 0x273 JUMP JUMPDEST SWAP1 JUMP JUMPDEST PUSH1 0xFF PUSH1 0x4 SLOAD AND PUSH2 0xFAA JUMPI DUP1 MLOAD DUP2 ADD SWAP1 PUSH1 0x60 DUP2 DUP4 SUB SLT PUSH2 0x26E JUMPI PUSH1 0x20 DUP2 ADD MLOAD SWAP1 PUSH1 0x40 DUP2 ADD MLOAD SWAP1 PUSH1 0x60 DUP2 ADD MLOAD SWAP1 PUSH8 0xFFFFFFFFFFFFFFFF DUP3 GT PUSH2 0x26E JUMPI PUSH1 0x20 PUSH2 0xF32 SWAP3 DUP2 PUSH2 0xF7A SWAP8 ADD SWAP3 ADD ADD PUSH2 0xE9F JUMP JUMPDEST SWAP1 PUSH2 0xF3B PUSH2 0x1EE JUMP JUMPDEST SWAP3 DUP4 MSTORE PUSH1 0x20 DUP4 ADD MSTORE PUSH1 0x40 DUP3 ADD MSTORE PUSH2 0xF75 PUSH32 0xFFFFFFFFFFFFFFFFFFFF0000000000000000000000000000000000000000FFFF PUSH1 0x0 SLOAD AND PUSH1 0x0 SSTORE JUMP JUMPDEST PUSH2 0xA8B JUMP JUMPDEST PUSH2 0x1FB PUSH1 0x1 PUSH32 0xFFFFFFFFFFFFFFFFFFFFFFFFFFFFFFFFFFFFFFFFFFFFFFFFFFFFFFFFFFFFFF00 PUSH1 0x4 SLOAD AND OR PUSH1 0x4 SSTORE JUMP JUMPDEST PUSH1 0x84 PUSH1 0x40 MLOAD PUSH32 0x8C379A000000000000000000000000000000000000000000000000000000000 DUP2 MSTORE PUSH1 0x20 PUSH1 0x4 DUP3 ADD MSTORE PUSH1 0x26 PUSH1 0x24 DUP3 ADD MSTORE PUSH32 0x4163636F756E743A20416C726561647920706173736B6579206F776E65722065 PUSH1 0x44 DUP3 ADD MSTORE PUSH32 0x6E61626C65640000000000000000000000000000000000000000000000000000 PUSH1 0x64 DUP3 ADD MSTORE REVERT JUMPDEST PUSH20 0xFFFFFFFFFFFFFFFFFFFFFFFFFFFFFFFFFFFFFFFF DUP2 AND SUB PUSH2 0x26E JUMPI JUMP JUMPDEST DUP1 MLOAD DUP2 ADD PUSH1 0x60 DUP3 DUP3 SUB SLT PUSH2 0x26E JUMPI PUSH1 0x20 DUP3 ADD MLOAD SWAP1 PUSH2 0x1069 DUP3 PUSH2 0x102E JUMP JUMPDEST PUSH1 0x40 DUP4 ADD MLOAD SWAP1 PUSH1 0x60 DUP5 ADD MLOAD PUSH8 0xFFFFFFFFFFFFFFFF DUP2 GT PUSH2 0x26E JUMPI PUSH2 0x1FB SWAP5 PUSH1 0x20 PUSH2 0x10AD SWAP3 DUP2 PUSH20 0xFFFFFFFFFFFFFFFFFFFFFFFFFFFFFFFFFFFFFFFF SWAP6 ADD SWAP3 ADD ADD PUSH2 0xE9F JUMP JUMPDEST SWAP3 AND PUSH2 0x1486 JUMP JUMPDEST PUSH8 0xFFFFFFFFFFFFFFFF DUP2 GT PUSH2 0x18C JUMPI PUSH1 0x5 SHL PUSH1 0x20 ADD SWAP1 JUMP JUMPDEST DUP2 PUSH1 0x1F DUP3 ADD SLT ISZERO PUSH2 0x26E JUMPI DUP1 MLOAD SWAP2 PUSH2 0x10E3 DUP4 PUSH2 0x10B4 JUMP JUMPDEST SWAP3 PUSH2 0x10F1 PUSH1 0x40 MLOAD SWAP5 DUP6 PUSH2 0x1AD JUMP JUMPDEST DUP1 DUP5 MSTORE PUSH1 0x20 SWAP3 DUP4 DUP1 DUP7 ADD SWAP3 PUSH1 0x5 SHL DUP3 ADD ADD SWAP3 DUP4 GT PUSH2 0x26E JUMPI DUP4 ADD SWAP1 JUMPDEST DUP3 DUP3 LT PUSH2 0x111B JUMPI POP POP POP POP SWAP1 JUMP JUMPDEST DUP2 MLOAD DUP2 MSTORE SWAP1 DUP4 ADD SWAP1 DUP4 ADD PUSH2 0x110D JUMP JUMPDEST SWAP1 DUP1 PUSH1 0x1F DUP4 ADD SLT ISZERO PUSH2 0x26E JUMPI DUP2 MLOAD SWAP1 PUSH2 0x1142 DUP3 PUSH2 0x10B4 JUMP JUMPDEST SWAP3 PUSH2 0x1150 PUSH1 0x40 MLOAD SWAP5 DUP6 PUSH2 0x1AD JUMP JUMPDEST DUP3 DUP5 MSTORE PUSH1 0x20 SWAP3 DUP4 DUP1 DUP7 ADD SWAP2 PUSH1 0x5 SHL DUP4 ADD ADD SWAP3 DUP1 DUP5 GT PUSH2 0x26E JUMPI DUP5 DUP4 ADD SWAP2 JUMPDEST DUP5 DUP4 LT PUSH2 0x117E JUMPI POP POP POP POP POP POP SWAP1 JUMP JUMPDEST DUP3 MLOAD PUSH8 0xFFFFFFFFFFFFFFFF DUP2 GT PUSH2 0x26E JUMPI DUP7 SWAP2 PUSH2 0x11A0 DUP5 DUP5 DUP1 SWAP5 DUP10 ADD ADD PUSH2 0xE9F JUMP JUMPDEST DUP2 MSTORE ADD SWAP3 ADD SWAP2 PUSH2 0x116E JUMP JUMPDEST SWAP1 SWAP2 PUSH1 0x60 DUP3 DUP5 SUB SLT PUSH2 0x26E JUMPI DUP2 MLOAD SWAP2 PUSH8 0xFFFFFFFFFFFFFFFF SWAP3 DUP4 DUP2 GT PUSH2 0x26E JUMPI DUP2 ADD SWAP4 DUP1 PUSH1 0x1F DUP7 ADD SLT ISZERO PUSH2 0x26E JUMPI DUP5 MLOAD PUSH2 0x11E4 DUP2 PUSH2 0x10B4 JUMP JUMPDEST SWAP1 PUSH2 0x11F2 PUSH1 0x40 MLOAD SWAP3 DUP4 PUSH2 0x1AD JUMP JUMPDEST DUP1 DUP3 MSTORE PUSH1 0x20 SWAP7 DUP8 DUP1 DUP5 ADD SWAP3 PUSH1 0x5 SHL DUP3 ADD ADD SWAP2 DUP5 DUP4 GT PUSH2 0x26E JUMPI DUP9 DUP1 SWAP3 ADD SWAP1 JUMPDEST DUP4 DUP3 LT PUSH2 0x124A JUMPI POP POP POP POP SWAP5 DUP3 ADD MLOAD DUP5 DUP2 GT PUSH2 0x26E JUMPI DUP2 PUSH2 0x1233 SWAP2 DUP5 ADD PUSH2 0x10CC JUMP JUMPDEST SWAP4 PUSH1 0x40 DUP4 ADD MLOAD SWAP1 DUP2 GT PUSH2 0x26E JUMPI PUSH2 0xEE1 SWAP3 ADD PUSH2 0x112A JUMP JUMPDEST DUP3 DUP1 SWAP2 DUP4 MLOAD PUSH2 0x1258 DUP2 PUSH2 0x102E JUMP JUMPDEST DUP2 MSTORE ADD SWAP2 ADD SWAP1 PUSH2 0x1211 JUMP JUMPDEST ISZERO PUSH2 0x126A JUMPI JUMP JUMPDEST PUSH1 0x64 PUSH1 0x40 MLOAD PUSH32 0x8C379A000000000000000000000000000000000000000000000000000000000 DUP2 MSTORE PUSH1 0x20 PUSH1 0x4 DUP3 ADD MSTORE PUSH1 0x13 PUSH1 0x24 DUP3 ADD MSTORE PUSH32 0x77726F6E67206172726179206C656E6774687300000000000000000000000000 PUSH1 0x44 DUP3 ADD MSTORE REVERT JUMPDEST PUSH32 0xFFFFFFFFFFFFFFFFFFFFFFFFFFFFFFFFFFFFFFFFFFFFFFFFFFFFFFFFFFFFFFFF DUP2 EQ PUSH2 0xD3E JUMPI PUSH1 0x1 ADD SWAP1 JUMP JUMPDEST PUSH32 0x4E487B7100000000000000000000000000000000000000000000000000000000 PUSH1 0x0 MSTORE PUSH1 0x32 PUSH1 0x4 MSTORE PUSH1 0x24 PUSH1 0x0 REVERT JUMPDEST DUP1 MLOAD DUP3 LT ISZERO PUSH2 0x1338 JUMPI PUSH1 0x20 SWAP2 PUSH1 0x5 SHL ADD ADD SWAP1 JUMP JUMPDEST PUSH2 0x12F5 JUMP JUMPDEST PUSH2 0x1350 SWAP1 PUSH1 0x20 DUP1 DUP3 MLOAD DUP4 ADD ADD SWAP2 ADD PUSH2 0x11AB JUMP JUMPDEST SWAP3 SWAP2 SWAP1 PUSH2 0x136A DUP3 MLOAD DUP6 MLOAD DUP1 SWAP2 EQ SWAP1 DUP2 PUSH2 0x1416 JUMPI JUMPDEST POP PUSH2 0x1263 JUMP JUMPDEST DUP1 MLOAD PUSH2 0x13CC JUMPI POP PUSH1 0x0 JUMPDEST DUP2 MLOAD DUP2 LT ISZERO PUSH2 0x13C6 JUMPI DUP1 PUSH2 0x13BC PUSH2 0x13AB PUSH2 0x1391 PUSH2 0x13C1 SWAP5 DUP7 PUSH2 0x1324 JUMP JUMPDEST MLOAD PUSH20 0xFFFFFFFFFFFFFFFFFFFFFFFFFFFFFFFFFFFFFFFF AND SWAP1 JUMP JUMPDEST PUSH2 0x13B5 DUP4 DUP9 PUSH2 0x1324 JUMP JUMPDEST MLOAD SWAP1 PUSH2 0x1435 JUMP JUMPDEST PUSH2 0x12C8 JUMP JUMPDEST PUSH2 0x1374 JUMP JUMPDEST POP POP SWAP1 POP JUMP JUMPDEST SWAP3 SWAP1 PUSH1 0x0 JUMPDEST DUP2 MLOAD DUP2 LT ISZERO PUSH2 0x140F JUMPI DUP1 PUSH2 0x13BC PUSH2 0x13EE PUSH2 0x1391 PUSH2 0x140A SWAP5 DUP7 PUSH2 0x1324 JUMP JUMPDEST PUSH2 0x13F8 DUP4 DUP10 PUSH2 0x1324 JUMP JUMPDEST MLOAD PUSH2 0x1403 DUP5 DUP9 PUSH2 0x1324 JUMP JUMPDEST MLOAD SWAP2 PUSH2 0x1486 JUMP JUMPDEST PUSH2 0x13D1 JUMP JUMPDEST POP POP POP SWAP1 POP JUMP JUMPDEST DUP4 MLOAD DUP1 ISZERO SWAP3 POP DUP3 ISZERO PUSH2 0x142B JUMPI JUMPDEST POP POP CODESIZE PUSH2 0x1364 JUMP JUMPDEST EQ SWAP1 POP CODESIZE DUP1 PUSH2 0x1423 JUMP JUMPDEST PUSH1 0x0 SWAP2 DUP3 SWAP2 DUP3 PUSH1 0x20 DUP4 MLOAD SWAP4 ADD SWAP2 GAS CALL RETURNDATASIZE ISZERO PUSH2 0x147E JUMPI RETURNDATASIZE SWAP1 PUSH2 0x1455 DUP3 PUSH2 0x1FD JUMP JUMPDEST SWAP2 PUSH2 0x1463 PUSH1 0x40 MLOAD SWAP4 DUP5 PUSH2 0x1AD JUMP JUMPDEST DUP3 MSTORE RETURNDATASIZE PUSH1 0x0 PUSH1 0x20 DUP5 ADD RETURNDATACOPY JUMPDEST ISZERO PUSH2 0x1476 JUMPI POP JUMP JUMPDEST PUSH1 0x20 DUP2 MLOAD SWAP2 ADD REVERT JUMPDEST PUSH1 0x60 SWAP1 PUSH2 0x146E JUMP JUMPDEST SWAP2 PUSH1 0x0 SWAP3 DUP4 SWAP3 PUSH1 0x20 DUP4 MLOAD SWAP4 ADD SWAP2 GAS CALL RETURNDATASIZE ISZERO PUSH2 0x147E JUMPI RETURNDATASIZE SWAP1 PUSH2 0x1455 DUP3 PUSH2 0x1FD JUMP JUMPDEST PUSH2 0x14AF DUP2 PUSH2 0x1A8D JUMP JUMPDEST PUSH1 0x4 SLOAD PUSH1 0xFF AND ISZERO PUSH2 0x14F3 JUMPI PUSH2 0x14E1 SWAP1 PUSH2 0x14D2 PUSH2 0x4F1 DUP5 PUSH1 0x60 PUSH2 0x14E5 SWAP7 ADD SWAP1 PUSH2 0xCB0 JUMP JUMPDEST SWAP1 PUSH2 0x14DB PUSH2 0x5CD JUMP JUMPDEST SWAP2 PUSH2 0x1997 JUMP JUMPDEST ISZERO SWAP1 JUMP JUMPDEST PUSH2 0x14EE JUMPI PUSH1 0x0 SWAP1 JUMP JUMPDEST PUSH1 0x1 SWAP1 JUMP JUMPDEST PUSH2 0x1594 PUSH2 0x157B PUSH2 0x1541 PUSH20 0xFFFFFFFFFFFFFFFFFFFFFFFFFFFFFFFFFFFFFFFF SWAP4 PUSH32 0x19457468657265756D205369676E6564204D6573736167653A0A333200000000 PUSH1 0x0 MSTORE PUSH1 0x1C MSTORE PUSH1 0x3C PUSH1 0x0 KECCAK256 SWAP1 JUMP JUMPDEST PUSH2 0x1575 PUSH2 0x4F1 PUSH2 0x156A PUSH1 0x0 SLOAD PUSH20 0xFFFFFFFFFFFFFFFFFFFFFFFFFFFFFFFFFFFFFFFF SWAP1 PUSH1 0x10 SHR AND SWAP1 JUMP JUMPDEST SWAP7 PUSH1 0x60 DUP2 ADD SWAP1 PUSH2 0xCB0 JUMP JUMPDEST SWAP1 PUSH2 0x15A0 JUMP JUMPDEST PUSH20 0xFFFFFFFFFFFFFFFFFFFFFFFFFFFFFFFFFFFFFFFF AND SWAP1 JUMP JUMPDEST SWAP2 AND SUB PUSH2 0x14EE JUMPI PUSH1 0x0 SWAP1 JUMP JUMPDEST PUSH2 0xEE1 SWAP2 PUSH2 0x15AD SWAP2 PUSH2 0x1777 JUMP JUMPDEST SWAP2 SWAP1 SWAP2 PUSH2 0x15EE JUMP JUMPDEST PUSH1 0x5 GT ISZERO PUSH2 0x15BF JUMPI JUMP JUMPDEST PUSH32 0x4E487B7100000000000000000000000000000000000000000000000000000000 PUSH1 0x0 MSTORE PUSH1 0x21 PUSH1 0x4 MSTORE PUSH1 0x24 PUSH1 0x0 REVERT JUMPDEST PUSH2 0x15F7 DUP2 PUSH2 0x15B5 JUMP JUMPDEST DUP1 PUSH2 0x15FF JUMPI POP JUMP JUMPDEST PUSH2 0x1608 DUP2 PUSH2 0x15B5 JUMP JUMPDEST PUSH1 0x1 DUP2 SUB PUSH2 0x166F JUMPI PUSH1 0x40 MLOAD PUSH32 0x8C379A000000000000000000000000000000000000000000000000000000000 DUP2 MSTORE PUSH1 0x20 PUSH1 0x4 DUP3 ADD MSTORE PUSH1 0x18 PUSH1 0x24 DUP3 ADD MSTORE PUSH32 0x45434453413A20696E76616C6964207369676E61747572650000000000000000 PUSH1 0x44 DUP3 ADD MSTORE PUSH1 0x64 SWAP1 REVERT JUMPDEST PUSH2 0x1678 DUP2 PUSH2 0x15B5 JUMP JUMPDEST PUSH1 0x2 DUP2 SUB PUSH2 0x16DF JUMPI PUSH1 0x40 MLOAD PUSH32 0x8C379A000000000000000000000000000000000000000000000000000000000 DUP2 MSTORE PUSH1 0x20 PUSH1 0x4 DUP3 ADD MSTORE PUSH1 0x1F PUSH1 0x24 DUP3 ADD MSTORE PUSH32 0x45434453413A20696E76616C6964207369676E6174757265206C656E67746800 PUSH1 0x44 DUP3 ADD MSTORE PUSH1 0x64 SWAP1 REVERT JUMPDEST DUP1 PUSH2 0x16EB PUSH1 0x3 SWAP3 PUSH2 0x15B5 JUMP JUMPDEST EQ PUSH2 0x16F2 JUMPI JUMP JUMPDEST PUSH1 0x40 MLOAD PUSH32 0x8C379A000000000000000000000000000000000000000000000000000000000 DUP2 MSTORE PUSH1 0x20 PUSH1 0x4 DUP3 ADD MSTORE PUSH1 0x22 PUSH1 0x24 DUP3 ADD MSTORE PUSH32 0x45434453413A20696E76616C6964207369676E6174757265202773272076616C PUSH1 0x44 DUP3 ADD MSTORE PUSH32 0x7565000000000000000000000000000000000000000000000000000000000000 PUSH1 0x64 DUP3 ADD MSTORE PUSH1 0x84 SWAP1 REVERT JUMPDEST SWAP1 PUSH1 0x41 DUP2 MLOAD EQ PUSH1 0x0 EQ PUSH2 0x17A5 JUMPI PUSH2 0x17A1 SWAP2 PUSH1 0x20 DUP3 ADD MLOAD SWAP1 PUSH1 0x60 PUSH1 0x40 DUP5 ADD MLOAD SWAP4 ADD MLOAD PUSH1 0x0 BYTE SWAP1 PUSH2 0x17BB JUMP JUMPDEST SWAP1 SWAP2 JUMP JUMPDEST POP POP PUSH1 0x0 SWAP1 PUSH1 0x2 SWAP1 JUMP JUMPDEST PUSH1 0x40 MLOAD RETURNDATASIZE PUSH1 0x0 DUP3 RETURNDATACOPY RETURNDATASIZE SWAP1 REVERT JUMPDEST SWAP3 SWAP2 SWAP1 PUSH32 0x7FFFFFFFFFFFFFFFFFFFFFFFFFFFFFFF5D576E7357A4501DDFE92F46681B20A0 DUP4 GT PUSH2 0x1843 JUMPI SWAP2 PUSH1 0x80 SWAP5 SWAP4 SWAP2 PUSH1 0xFF PUSH1 0x20 SWAP5 PUSH1 0x40 MLOAD SWAP5 DUP6 MSTORE AND DUP5 DUP5 ADD MSTORE PUSH1 0x40 DUP4 ADD MSTORE PUSH1 0x60 DUP3 ADD MSTORE PUSH1 0x0 SWAP4 DUP5 SWAP2 DUP3 DUP1 MSTORE PUSH1 0x1 GAS STATICCALL ISZERO PUSH2 0x183E JUMPI DUP2 MLOAD PUSH20 0xFFFFFFFFFFFFFFFFFFFFFFFFFFFFFFFFFFFFFFFF DUP2 AND ISZERO PUSH2 0x1838 JUMPI SWAP2 SWAP1 JUMP JUMPDEST POP PUSH1 0x1 SWAP1 JUMP JUMPDEST PUSH2 0x17AF JUMP JUMPDEST POP POP POP POP PUSH1 0x0 SWAP1 PUSH1 0x3 SWAP1 JUMP JUMPDEST PUSH1 0x40 PUSH1 0x5 SLOAD SWAP2 ADD CALLDATALOAD EQ PUSH2 0x1861 JUMPI PUSH1 0x1 SWAP1 JUMP JUMPDEST PUSH1 0x0 SWAP1 JUMP JUMPDEST SWAP1 PUSH1 0x40 MLOAD SWAP2 PUSH1 0x20 DUP4 ADD MSTORE PUSH1 0x20 DUP3 MSTORE PUSH1 0x40 DUP3 ADD DUP3 DUP2 LT PUSH8 0xFFFFFFFFFFFFFFFF DUP3 GT OR PUSH2 0x18C JUMPI PUSH1 0x40 MSTORE JUMP JUMPDEST SWAP1 PUSH2 0x18A3 PUSH1 0x20 SWAP3 DUP3 DUP2 MLOAD SWAP5 DUP6 SWAP3 ADD PUSH2 0x273 JUMP JUMPDEST ADD SWAP1 JUMP JUMPDEST PUSH2 0x1FB SWAP2 SWAP4 SWAP3 SWAP4 PUSH1 0x40 MLOAD SWAP5 DUP6 SWAP2 DUP4 MLOAD PUSH2 0x18C8 DUP2 PUSH1 0x20 SWAP7 DUP8 DUP1 DUP9 ADD SWAP2 ADD PUSH2 0x273 JUMP JUMPDEST DUP4 ADD PUSH2 0x18DC DUP3 MLOAD DUP1 SWAP4 DUP8 DUP1 DUP6 ADD SWAP2 ADD PUSH2 0x273 JUMP JUMPDEST ADD PUSH2 0x18EF DUP3 MLOAD DUP1 SWAP4 DUP7 DUP1 DUP6 ADD SWAP2 ADD PUSH2 0x273 JUMP JUMPDEST ADD SUB DUP1 DUP6 MSTORE ADD DUP4 PUSH2 0x1AD JUMP JUMPDEST PUSH1 0x40 PUSH2 0x1FB SWAP2 SWAP4 SWAP3 SWAP4 DUP2 MLOAD SWAP5 DUP2 PUSH2 0x191C DUP8 SWAP4 MLOAD DUP1 SWAP3 PUSH1 0x20 DUP1 DUP8 ADD SWAP2 ADD PUSH2 0x273 JUMP JUMPDEST DUP3 ADD SWAP1 PUSH1 0x20 DUP3 ADD MSTORE SUB PUSH1 0x20 DUP2 ADD DUP6 MSTORE ADD DUP4 PUSH2 0x1AD JUMP JUMPDEST ISZERO PUSH2 0x1939 JUMPI JUMP JUMPDEST PUSH1 0x64 PUSH1 0x40 MLOAD PUSH32 0x8C379A000000000000000000000000000000000000000000000000000000000 DUP2 MSTORE PUSH1 0x20 PUSH1 0x4 DUP3 ADD MSTORE PUSH1 0xD PUSH1 0x24 DUP3 ADD MSTORE PUSH32 0x4B6579206E6F7420666F756E6400000000000000000000000000000000000000 PUSH1 0x44 DUP3 ADD MSTORE REVERT JUMPDEST SWAP1 DUP2 MLOAD DUP3 ADD SWAP1 PUSH1 0x20 SWAP3 PUSH1 0xC0 DUP2 DUP6 DUP6 ADD SWAP5 SUB SLT PUSH2 0x26E JUMPI PUSH1 0x40 DUP2 ADD MLOAD SWAP2 PUSH1 0x60 DUP3 ADD MLOAD SWAP4 PUSH1 0x80 DUP4 ADD MLOAD SWAP3 PUSH8 0xFFFFFFFFFFFFFFFF SWAP4 DUP5 DUP2 GT PUSH2 0x26E JUMPI DUP3 DUP9 PUSH2 0x19DE SWAP3 DUP5 ADD ADD PUSH2 0xE9F JUMP JUMPDEST SWAP4 PUSH1 0xA0 DUP3 ADD MLOAD DUP2 DUP2 GT PUSH2 0x26E JUMPI DUP4 DUP10 PUSH2 0x19F9 SWAP3 DUP6 ADD ADD PUSH2 0xE9F JUMP JUMPDEST SWAP4 PUSH1 0xC0 DUP4 ADD MLOAD SWAP2 DUP3 GT PUSH2 0x26E JUMPI DUP9 SWAP5 PUSH2 0x1A2F PUSH2 0x1A2A PUSH2 0x1A24 PUSH1 0x0 SWAP8 DUP10 PUSH2 0x1A35 SWAP8 PUSH2 0x1A41 SWAP10 ADD ADD PUSH2 0xE9F JUMP JUMPDEST SWAP4 PUSH2 0x1866 JUMP JUMPDEST PUSH2 0x1BCB JUMP JUMPDEST SWAP1 PUSH2 0x18A7 JUMP JUMPDEST PUSH1 0x40 MLOAD SWAP2 DUP3 DUP1 SWAP3 PUSH2 0x1890 JUMP JUMPDEST SUB SWAP1 PUSH1 0x2 GAS STATICCALL ISZERO PUSH2 0x183E JUMPI PUSH1 0x0 PUSH2 0x1A5E PUSH2 0x1A35 DUP7 SWAP4 DUP4 MLOAD SWAP1 PUSH2 0x18FB JUMP JUMPDEST SUB SWAP1 PUSH1 0x2 GAS STATICCALL ISZERO PUSH2 0x183E JUMPI PUSH2 0xEE1 SWAP4 PUSH2 0x1A83 PUSH1 0x0 MLOAD SWAP5 DUP3 ADD MLOAD ISZERO ISZERO DUP1 PUSH2 0x1A88 JUMPI PUSH2 0x1932 JUMP JUMPDEST PUSH2 0x1C7D JUMP JUMPDEST PUSH2 0x1932 JUMP JUMPDEST PUSH2 0x1A9A PUSH1 0x20 DUP3 ADD DUP3 PUSH2 0xCB0 JUMP JUMPDEST SWAP1 DUP2 PUSH1 0x40 MLOAD SWAP2 DUP3 CALLDATACOPY KECCAK256 PUSH1 0x40 DUP1 MLOAD SWAP3 PUSH1 0x20 DUP5 ADD SWAP3 DUP2 CALLDATALOAD DUP5 MSTORE DUP3 DUP6 ADD MSTORE ADD CALLDATALOAD PUSH1 0x60 DUP4 ADD MSTORE PUSH1 0x60 DUP3 MSTORE PUSH1 0x80 DUP3 ADD SWAP1 DUP3 DUP3 LT PUSH8 0xFFFFFFFFFFFFFFFF DUP4 GT OR PUSH2 0x18C JUMPI DUP2 PUSH1 0x40 MSTORE DUP3 MLOAD SWAP1 KECCAK256 SWAP2 PUSH1 0xA0 DUP2 ADD SWAP3 DUP4 MSTORE ADDRESS PUSH1 0xC0 DUP3 ADD MSTORE PUSH1 0xE0 CHAINID SWAP2 ADD MSTORE PUSH1 0x60 DUP2 MSTORE PUSH2 0x1B01 DUP2 PUSH2 0x191 JUMP JUMPDEST MLOAD SWAP1 KECCAK256 SWAP1 JUMP JUMPDEST PUSH1 0x40 MLOAD SWAP1 PUSH2 0x1B14 DUP3 PUSH2 0x170 JUMP JUMPDEST PUSH1 0x40 DUP3 MSTORE PUSH32 0x6768696A6B6C6D6E6F707172737475767778797A303132333435363738392D5F PUSH1 0x40 DUP4 PUSH32 0x4142434445464748494A4B4C4D4E4F505152535455565758595A616263646566 PUSH1 0x20 DUP3 ADD MSTORE ADD MSTORE JUMP JUMPDEST SWAP1 DUP2 PUSH1 0x3 SHL SWAP2 DUP1 DUP4 DIV PUSH1 0x8 EQ SWAP1 ISZERO OR ISZERO PUSH2 0xD3E JUMPI JUMP JUMPDEST SWAP1 PUSH2 0x1B86 DUP3 PUSH2 0x1FD JUMP JUMPDEST PUSH2 0x1B93 PUSH1 0x40 MLOAD SWAP2 DUP3 PUSH2 0x1AD JUMP JUMPDEST DUP3 DUP2 MSTORE PUSH32 0xFFFFFFFFFFFFFFFFFFFFFFFFFFFFFFFFFFFFFFFFFFFFFFFFFFFFFFFFFFFFFFE0 PUSH2 0x1BC1 DUP3 SWAP5 PUSH2 0x1FD JUMP JUMPDEST ADD SWAP1 PUSH1 0x20 CALLDATASIZE SWAP2 ADD CALLDATACOPY JUMP JUMPDEST DUP1 MLOAD ISZERO PUSH2 0x1C74 JUMPI PUSH2 0x1BDA PUSH2 0x1B07 JUMP JUMPDEST PUSH2 0x1C00 PUSH2 0x1BF1 PUSH2 0x1BEA DUP5 MLOAD PUSH2 0x1B66 JUMP JUMPDEST PUSH1 0x6 SWAP1 DIV SWAP1 JUMP JUMPDEST DUP4 MLOAD PUSH1 0x6 SWAP1 MOD PUSH2 0x1C66 JUMPI PUSH2 0x1B7C JUMP JUMPDEST SWAP2 PUSH1 0x20 DUP4 ADD SWAP2 DUP2 DUP1 MLOAD ADD SWAP3 JUMPDEST DUP4 DUP4 LT PUSH2 0x1C1A JUMPI POP POP POP POP SWAP1 JUMP JUMPDEST PUSH1 0x4 SWAP1 PUSH1 0x3 DUP1 SWAP5 ADD SWAP4 DUP5 MLOAD PUSH1 0x1 SWAP1 PUSH1 0x3F SWAP1 DUP3 DUP3 DUP3 PUSH1 0x12 SHR AND DUP9 ADD ADD MLOAD DUP6 MSTORE8 DUP3 DUP3 DUP3 PUSH1 0xC SHR AND DUP9 ADD ADD MLOAD DUP4 DUP7 ADD MSTORE8 DUP3 DUP3 DUP3 PUSH1 0x6 SHR AND DUP9 ADD ADD MLOAD PUSH1 0x2 DUP7 ADD MSTORE8 AND DUP6 ADD ADD MLOAD SWAP1 DUP3 ADD MSTORE8 ADD PUSH2 0x1C0C JUMP JUMPDEST PUSH2 0x1C6F SWAP1 PUSH2 0x12C8 JUMP JUMPDEST PUSH2 0x1B7C JUMP JUMPDEST POP PUSH2 0xEE1 PUSH2 0xD43 JUMP JUMPDEST SWAP3 SWAP2 SWAP1 DUP1 ISZERO DUP1 ISZERO PUSH2 0x1E98 JUMPI JUMPDEST DUP1 ISZERO PUSH2 0x1E6E JUMPI JUMPDEST DUP1 ISZERO PUSH2 0x1E44 JUMPI JUMPDEST PUSH2 0x1E3B JUMPI PUSH2 0xEE1 SWAP4 PUSH2 0x1E30 PUSH2 0x1CAA PUSH2 0x2015 JUMP JUMPDEST SWAP2 PUSH2 0x1CB3 PUSH2 0x1EE JUMP JUMPDEST PUSH1 0x0 DUP2 MSTORE PUSH1 0x0 PUSH1 0x20 DUP3 ADD MSTORE PUSH1 0x0 PUSH1 0x40 DUP3 ADD MSTORE DUP4 MSTORE PUSH1 0x20 DUP2 MLOAD SWAP2 ADD MLOAD PUSH2 0x1CD6 PUSH2 0x1EE JUMP JUMPDEST SWAP2 DUP3 MSTORE PUSH1 0x20 DUP3 ADD MSTORE PUSH1 0x1 PUSH1 0x40 DUP3 ADD MSTORE PUSH2 0x1CF5 PUSH1 0x20 DUP5 ADD SWAP2 DUP1 DUP4 MSTORE PUSH2 0x20A4 JUMP JUMPDEST SWAP1 PUSH2 0x1E21 PUSH2 0x1D0B PUSH1 0x40 DUP7 ADD SWAP4 DUP1 DUP6 MSTORE DUP4 MLOAD PUSH2 0x205A JUMP JUMPDEST SWAP3 PUSH1 0x60 DUP7 ADD SWAP4 DUP5 MSTORE PUSH2 0x1E11 PUSH2 0x1E01 PUSH2 0x1D21 PUSH2 0x1EE JUMP JUMPDEST PUSH32 0x6B17D1F2E12C4247F8BCE6E563A440F277037D812DEB33A0F4A13945D898C296 DUP2 MSTORE PUSH32 0x4FE342E2FE1A7F9B8EE7EB4A7C0F9E162BCE33576B315ECECBB6406837BF51F5 PUSH1 0x20 DUP3 ADD MSTORE PUSH1 0x1 PUSH1 0x40 DUP3 ADD MSTORE PUSH2 0x1D84 PUSH1 0x80 DUP11 ADD SWAP2 DUP1 DUP4 MSTORE DUP8 MLOAD SWAP1 PUSH2 0x205A JUMP JUMPDEST PUSH1 0xA0 DUP11 ADD MSTORE PUSH2 0x1D96 DUP2 MLOAD DUP6 MLOAD SWAP1 PUSH2 0x205A JUMP JUMPDEST PUSH1 0xC0 DUP11 ADD MSTORE PUSH2 0x1DA8 DUP2 MLOAD DUP9 MLOAD SWAP1 PUSH2 0x205A JUMP JUMPDEST PUSH1 0xE0 DUP11 ADD MSTORE PUSH2 0x1DB7 DUP2 MLOAD PUSH2 0x20A4 JUMP JUMPDEST SWAP1 PUSH2 0x1DCC PUSH2 0x100 DUP12 ADD SWAP3 DUP1 DUP5 MSTORE DUP9 MLOAD SWAP1 PUSH2 0x205A JUMP JUMPDEST PUSH2 0x120 DUP12 ADD MSTORE PUSH2 0x1DDF DUP3 MLOAD DUP7 MLOAD SWAP1 PUSH2 0x205A JUMP JUMPDEST PUSH2 0x140 DUP12 ADD MSTORE PUSH2 0x1DF2 DUP3 MLOAD DUP10 MLOAD SWAP1 PUSH2 0x205A JUMP JUMPDEST PUSH2 0x160 DUP12 ADD MSTORE MLOAD SWAP1 MLOAD SWAP1 PUSH2 0x205A JUMP JUMPDEST PUSH2 0x180 DUP9 ADD SWAP5 DUP2 DUP7 MSTORE MLOAD SWAP1 PUSH2 0x205A JUMP JUMPDEST PUSH2 0x1A0 DUP8 ADD MSTORE DUP3 MLOAD SWAP1 MLOAD SWAP1 PUSH2 0x205A JUMP JUMPDEST PUSH2 0x1C0 DUP6 ADD MSTORE MLOAD SWAP1 MLOAD SWAP1 PUSH2 0x205A JUMP JUMPDEST PUSH2 0x1E0 DUP3 ADD MSTORE PUSH2 0x1EA0 JUMP JUMPDEST POP POP POP POP PUSH1 0x0 SWAP1 JUMP JUMPDEST POP PUSH32 0xFFFFFFFF00000000FFFFFFFFFFFFFFFFBCE6FAADA7179E84F3B9CAC2FC632551 DUP3 LT ISZERO PUSH2 0x1C97 JUMP JUMPDEST POP PUSH32 0xFFFFFFFF00000000FFFFFFFFFFFFFFFFBCE6FAADA7179E84F3B9CAC2FC632551 DUP2 LT ISZERO PUSH2 0x1C90 JUMP JUMPDEST POP DUP2 ISZERO PUSH2 0x1C89 JUMP JUMPDEST SWAP4 SWAP3 SWAP1 SWAP2 PUSH32 0xFFFFFFFF00000000FFFFFFFFFFFFFFFFBCE6FAADA7179E84F3B9CAC2FC632551 SWAP1 DUP2 DUP5 LT DUP1 ISZERO SWAP1 PUSH2 0x1FB0 JUMPI JUMPDEST PUSH2 0x1FA6 JUMPI PUSH2 0x1EDF DUP3 SWAP2 PUSH2 0x236E JUMP JUMPDEST DUP1 SWAP4 MULMOD SWAP2 DUP4 MULMOD PUSH1 0x0 DUP1 SWAP2 DUP2 SWAP4 PUSH1 0x80 SWAP2 DUP3 JUMPDEST PUSH2 0x1F08 JUMPI POP POP POP PUSH2 0x1F03 SWAP4 SWAP5 SWAP6 POP PUSH2 0x20C4 JUMP JUMPDEST POP EQ SWAP1 JUMP JUMPDEST DUP6 PUSH2 0x1F84 JUMPI JUMPDEST DUP9 DUP2 PUSH1 0xFE SHR PUSH1 0xC DUP5 PUSH1 0xFC SHR AND OR DUP1 PUSH2 0x1F3B JUMPI JUMPDEST POP POP PUSH2 0x1F34 SWAP1 PUSH1 0x2 SWAP3 DUP4 SHL SWAP3 SHL SWAP3 PUSH2 0x1FCB JUMP JUMPDEST SWAP2 DUP3 PUSH2 0x1EF0 JUMP JUMPDEST PUSH2 0x1F77 SWAP4 SWAP8 PUSH2 0x1F34 SWAP8 PUSH1 0x40 PUSH2 0x1F6E PUSH2 0x1F56 DUP6 DUP8 SWAP12 SWAP9 SWAP12 PUSH2 0x1FBA JUMP JUMPDEST MLOAD MLOAD SWAP5 PUSH1 0x20 PUSH2 0x1F65 DUP3 DUP10 PUSH2 0x1FBA JUMP JUMPDEST MLOAD ADD MLOAD SWAP7 PUSH2 0x1FBA JUMP JUMPDEST MLOAD ADD MLOAD SWAP5 PUSH2 0x219B JUMP JUMPDEST SWAP6 SWAP1 SWAP5 POP SWAP1 SWAP3 DUP9 CODESIZE PUSH2 0x1F21 JUMP JUMPDEST SWAP3 SWAP5 PUSH2 0x1F95 SWAP2 SWAP5 PUSH2 0x1F9B SWAP4 SWAP7 PUSH2 0x22B8 JUMP JUMPDEST SWAP2 PUSH2 0x22B8 JUMP JUMPDEST SWAP5 SWAP2 SWAP4 SWAP1 SWAP4 SWAP3 PUSH2 0x1F0E JUMP JUMPDEST POP PUSH1 0x0 SWAP5 POP POP POP POP JUMP JUMPDEST POP DUP2 DUP2 LT ISZERO PUSH2 0x1ED1 JUMP JUMPDEST SWAP1 PUSH1 0x10 DUP2 LT ISZERO PUSH2 0x1338 JUMPI PUSH1 0x5 SHL ADD SWAP1 JUMP JUMPDEST DUP1 ISZERO PUSH2 0xD3E JUMPI PUSH32 0xFFFFFFFFFFFFFFFFFFFFFFFFFFFFFFFFFFFFFFFFFFFFFFFFFFFFFFFFFFFFFFFF ADD SWAP1 JUMP JUMPDEST PUSH1 0x40 MLOAD SWAP1 PUSH2 0x2003 DUP3 PUSH2 0x170 JUMP JUMPDEST PUSH1 0x0 PUSH1 0x40 DUP4 DUP3 DUP2 MSTORE DUP3 PUSH1 0x20 DUP3 ADD MSTORE ADD MSTORE JUMP JUMPDEST PUSH1 0x40 MLOAD SWAP1 PUSH2 0x200 DUP1 DUP4 ADD DUP4 DUP2 LT PUSH8 0xFFFFFFFFFFFFFFFF DUP3 GT OR PUSH2 0x18C JUMPI PUSH1 0x40 MSTORE DUP3 PUSH1 0x0 JUMPDEST DUP3 DUP2 LT PUSH2 0x2045 JUMPI POP POP POP JUMP JUMPDEST PUSH1 0x20 SWAP1 PUSH2 0x2050 PUSH2 0x1FF6 JUMP JUMPDEST DUP2 DUP5 ADD MSTORE ADD PUSH2 0x2039 JUMP JUMPDEST PUSH2 0x2087 SWAP2 PUSH2 0x2066 PUSH2 0x1FF6 JUMP JUMPDEST POP DUP2 MLOAD SWAP2 PUSH1 0x40 PUSH1 0x20 DUP3 ADD MLOAD SWAP2 ADD MLOAD DUP3 MLOAD SWAP2 PUSH1 0x40 PUSH1 0x20 DUP6 ADD MLOAD SWAP5 ADD MLOAD SWAP5 PUSH2 0x219B JUMP JUMPDEST SWAP1 PUSH1 0x40 MLOAD SWAP3 PUSH2 0x2095 DUP5 PUSH2 0x170 JUMP JUMPDEST DUP4 MSTORE PUSH1 0x20 DUP4 ADD MSTORE PUSH1 0x40 DUP3 ADD MSTORE SWAP1 JUMP JUMPDEST PUSH2 0x2087 SWAP1 PUSH2 0x20B0 PUSH2 0x1FF6 JUMP JUMPDEST POP DUP1 MLOAD SWAP1 PUSH1 0x40 PUSH1 0x20 DUP3 ADD MLOAD SWAP2 ADD MLOAD SWAP2 PUSH2 0x22B8 JUMP JUMPDEST SWAP3 SWAP2 SWAP1 DUP2 ISZERO PUSH2 0x218F JUMPI DUP2 PUSH1 0x0 PUSH32 0xFFFFFFFF00000001000000000000000000000000FFFFFFFFFFFFFFFFFFFFFFFF DUP5 DUP2 DUP1 SWAP7 GT PUSH2 0x2185 JUMPI JUMPDEST POP POP PUSH1 0x40 MLOAD SWAP2 PUSH1 0x20 DUP4 MSTORE PUSH1 0x20 DUP1 DUP5 ADD MSTORE PUSH1 0x20 PUSH1 0x40 DUP5 ADD MSTORE PUSH1 0x60 DUP4 ADD MSTORE PUSH32 0xFFFFFFFF00000001000000000000000000000000FFFFFFFFFFFFFFFFFFFFFFFD PUSH1 0x80 DUP4 ADD MSTORE DUP4 PUSH1 0xA0 DUP4 ADD MSTORE PUSH1 0x20 DUP3 PUSH1 0xC0 DUP2 PUSH1 0x5 PUSH32 0xFFFFFFFFFFFFFFFFFFFFFFFFFFFFFFFFFFFFFFFFFFFFFFFFFFFFFFFFFFFFFFFF STATICCALL ISZERO PUSH2 0x13E JUMPI POP DUP3 SWAP1 MLOAD DUP2 DUP1 DUP3 DUP1 MULMOD DUP1 SWAP8 MULMOD SWAP6 MULMOD SWAP1 MULMOD SWAP1 JUMP JUMPDEST MOD SWAP2 POP DUP4 CODESIZE PUSH2 0x20FB JUMP JUMPDEST POP POP SWAP1 POP PUSH1 0x0 SWAP1 PUSH1 0x0 SWAP1 JUMP JUMPDEST SWAP4 SWAP6 SWAP4 SWAP2 SWAP1 DUP2 PUSH2 0x21AD JUMPI POP POP POP SWAP3 SWAP2 SWAP1 JUMP JUMPDEST SWAP1 SWAP3 SWAP2 SWAP5 SWAP6 DUP7 ISZERO PUSH2 0x22AE JUMPI PUSH32 0xFFFFFFFF00000001000000000000000000000000FFFFFFFFFFFFFFFFFFFFFFFF SWAP6 DUP7 DUP6 DUP2 SWAP7 SWAP6 DUP3 DUP1 DUP4 DUP2 SWAP10 MULMOD SWAP12 DUP2 DUP14 SWAP10 SWAP8 DUP2 DUP7 DUP2 DUP1 DUP1 DUP16 SWAP14 DUP9 DUP1 MULMOD DUP1 SWAP14 MULMOD SWAP13 DUP14 SWAP10 MULMOD SWAP13 DUP2 DUP8 DUP14 MULMOD SWAP1 MULMOD SWAP13 MULMOD SWAP1 MULMOD SWAP4 ADDMOD SWAP6 DUP2 DUP2 LT PUSH2 0x22A7 JUMPI JUMPDEST SUB SWAP6 DUP3 DUP1 DUP1 DUP10 PUSH1 0x2 MULMOD DUP1 MULMOD SWAP3 DUP2 DUP1 DUP5 DUP2 DUP8 DUP14 MULMOD SWAP4 DUP2 DUP2 LT PUSH2 0x22A0 JUMPI JUMPDEST SUB PUSH1 0x2 MULMOD SWAP5 DUP2 DUP7 DUP1 MULMOD SWAP9 MULMOD SWAP7 DUP3 DUP1 DUP10 PUSH1 0x2 MULMOD DUP4 ADDMOD SWAP1 DUP2 DUP2 LT PUSH2 0x2299 JUMPI JUMPDEST SUB SWAP12 DUP13 SWAP4 PUSH1 0x2 MULMOD MULMOD SWAP5 DUP2 DUP2 LT PUSH2 0x2292 JUMPI JUMPDEST SUB SWAP1 MULMOD SWAP8 DUP3 DUP10 LT PUSH2 0x2289 JUMPI JUMPDEST DUP6 SWAP2 DUP3 SWAP2 ADDMOD SWAP3 DUP1 MULMOD SWAP6 DUP3 DUP8 LT PUSH2 0x2280 JUMPI JUMPDEST SWAP7 SUB SWAP5 SUB MULMOD SWAP1 JUMP JUMPDEST SWAP6 DUP5 ADD SWAP6 PUSH2 0x2278 JUMP JUMPDEST SWAP8 DUP6 ADD SWAP8 PUSH2 0x2267 JUMP JUMPDEST DUP4 ADD PUSH2 0x225B JUMP JUMPDEST DUP4 ADD PUSH2 0x224A JUMP JUMPDEST DUP3 ADD PUSH2 0x222D JUMP JUMPDEST DUP4 ADD PUSH2 0x2211 JUMP JUMPDEST POP SWAP5 POP POP SWAP2 SWAP3 SWAP2 SWAP1 JUMP JUMPDEST SWAP3 SWAP1 SWAP2 PUSH32 0xFFFFFFFF00000001000000000000000000000000FFFFFFFFFFFFFFFFFFFFFFFF DUP1 SWAP2 DUP2 DUP6 DUP1 MULMOD SWAP6 DUP3 DUP1 DUP1 DUP1 DUP1 DUP1 DUP13 DUP8 MULMOD PUSH1 0x4 MULMOD SWAP11 DUP1 MULMOD PUSH1 0x8 MULMOD SWAP3 DUP2 DUP1 DUP1 DUP1 DUP1 DUP10 DUP1 MULMOD DUP1 MULMOD PUSH32 0xFFFFFFFF00000001000000000000000000000000FFFFFFFFFFFFFFFFFFFFFFFC MULMOD SWAP3 DUP1 MULMOD PUSH1 0x3 MULMOD ADDMOD DUP2 DUP10 PUSH1 0x2 MULMOD DUP3 DUP3 DUP1 MULMOD DUP2 DUP2 LT PUSH2 0x2367 JUMPI JUMPDEST SUB DUP10 DUP2 DUP1 SWAP12 LT PUSH2 0x2360 JUMPI JUMPDEST SUB SWAP1 MULMOD DUP2 DUP2 LT PUSH2 0x2359 JUMPI JUMPDEST SUB SWAP5 MULMOD PUSH1 0x2 MULMOD SWAP1 JUMP JUMPDEST DUP4 ADD PUSH2 0x2350 JUMP JUMPDEST DUP4 ADD PUSH2 0x2345 JUMP JUMPDEST DUP4 ADD PUSH2 0x233A JUMP JUMPDEST PUSH32 0xFFFFFFFF00000000FFFFFFFFFFFFFFFFBCE6FAADA7179E84F3B9CAC2FC632551 DUP1 DUP3 GT PUSH2 0x240F JUMPI JUMPDEST PUSH1 0x40 MLOAD SWAP2 PUSH1 0x20 DUP4 MSTORE PUSH1 0x20 DUP1 DUP5 ADD MSTORE PUSH1 0x20 PUSH1 0x40 DUP5 ADD MSTORE PUSH1 0x60 DUP4 ADD MSTORE PUSH32 0xFFFFFFFF00000000FFFFFFFFFFFFFFFFBCE6FAADA7179E84F3B9CAC2FC63254F PUSH1 0x80 DUP4 ADD MSTORE PUSH1 0xA0 DUP3 ADD MSTORE PUSH1 0x20 DUP2 PUSH1 0xC0 DUP2 PUSH1 0x5 PUSH32 0xFFFFFFFFFFFFFFFFFFFFFFFFFFFFFFFFFFFFFFFFFFFFFFFFFFFFFFFFFFFFFFFF STATICCALL ISZERO PUSH2 0x26E JUMPI MLOAD SWAP1 JUMP JUMPDEST DUP1 SWAP2 MOD SWAP1 PUSH2 0x2397 JUMP INVALID LOG1 PUSH5 0x736F6C6343 STOP ADDMOD SGT STOP EXP "},"gasEstimates":{"creation":{"codeDepositCost":"496400","executionCost":"infinite","totalCost":"infinite"},"external":{"accountImplementation()":"infinite","createAccount(uint256,uint256,string,uint256)":"infinite","getAddress(uint256,uint256,string,uint256)":"infinite"}},"methodIdentifiers":{"accountImplementation()":"11464fbe","createAccount(uint256,uint256,string,uint256)":"c8cb55ae","getAddress(uint256,uint256,string,uint256)":"cac8cfc2"}},"storageLayout":{"storage":[],"types":null},"userdoc":{"kind":"user","methods":{"createAccount(uint256,uint256,string,uint256)":{"notice":"create an account, and return its address. returns the address even if the account is already deployed. Note that during UserOperation execution, this method is called only if the account is not deployed. This method returns an existing account address so that entryPoint.getSenderAddress() would work even after account creation"},"getAddress(uint256,uint256,string,uint256)":{"notice":"calculate the counterfactual address of this account as it would be returned by createAccount()"}},"version":1}}}}