{"contracts/aa/utils/UserOp.sol":{"UserOpLib":{"abi":[{"inputs":[{"internalType":"bytes","name":"data","type":"bytes"}],"name":"calldataKeccak","outputs":[{"internalType":"bytes32","name":"ret","type":"bytes32"}],"stateMutability":"pure","type":"function"}],"devdoc":{"kind":"dev","methods":{"calldataKeccak(bytes)":{"details":"copy calldata into memory, do keccak and drop allocated memory. Strangely, this is more efficient than letting solidity do it."}},"version":1},"evm":{"bytecode":{"linkReferences":{},"object":"608080604052346100195760b5908161001f823930815050f35b600080fdfe60806040526004361015601157600080fd5b6000803560e01c631d43458514602657600080fd5b60207ffffffffffffffffffffffffffffffffffffffffffffffffffffffffffffffffc36011260a5576004359067ffffffffffffffff9081831160a5573660238401121560a557826004013591821160a557366024838501011160a5575080602460a193016080376080206040519081529081906020820190565b0390f35b80fdfea164736f6c6343000813000a","opcodes":"PUSH1 0x80 DUP1 PUSH1 0x40 MSTORE CALLVALUE PUSH2 0x19 JUMPI PUSH1 0xB5 SWAP1 DUP2 PUSH2 0x1F DUP3 CODECOPY ADDRESS DUP2 POP POP RETURN JUMPDEST PUSH1 0x0 DUP1 REVERT INVALID PUSH1 0x80 PUSH1 0x40 MSTORE PUSH1 0x4 CALLDATASIZE LT ISZERO PUSH1 0x11 JUMPI PUSH1 0x0 DUP1 REVERT JUMPDEST PUSH1 0x0 DUP1 CALLDATALOAD PUSH1 0xE0 SHR PUSH4 0x1D434585 EQ PUSH1 0x26 JUMPI PUSH1 0x0 DUP1 REVERT JUMPDEST PUSH1 0x20 PUSH32 0xFFFFFFFFFFFFFFFFFFFFFFFFFFFFFFFFFFFFFFFFFFFFFFFFFFFFFFFFFFFFFFFC CALLDATASIZE ADD SLT PUSH1 0xA5 JUMPI PUSH1 0x4 CALLDATALOAD SWAP1 PUSH8 0xFFFFFFFFFFFFFFFF SWAP1 DUP2 DUP4 GT PUSH1 0xA5 JUMPI CALLDATASIZE PUSH1 0x23 DUP5 ADD SLT ISZERO PUSH1 0xA5 JUMPI DUP3 PUSH1 0x4 ADD CALLDATALOAD SWAP2 DUP3 GT PUSH1 0xA5 JUMPI CALLDATASIZE PUSH1 0x24 DUP4 DUP6 ADD ADD GT PUSH1 0xA5 JUMPI POP DUP1 PUSH1 0x24 PUSH1 0xA1 SWAP4 ADD PUSH1 0x80 CALLDATACOPY PUSH1 0x80 KECCAK256 PUSH1 0x40 MLOAD SWAP1 DUP2 MSTORE SWAP1 DUP2 SWAP1 PUSH1 0x20 DUP3 ADD SWAP1 JUMP JUMPDEST SUB SWAP1 RETURN JUMPDEST DUP1 REVERT INVALID LOG1 PUSH5 0x736F6C6343 STOP ADDMOD SGT STOP EXP "},"gasEstimates":{"creation":{"codeDepositCost":"36200","executionCost":"infinite","totalCost":"infinite"},"external":{"calldataKeccak(bytes)":"infinite"},"internal":{"hash(struct UserOp calldata)":"infinite","pack(struct UserOp calldata)":"infinite"}},"methodIdentifiers":{"calldataKeccak(bytes)":"1d434585"}},"storageLayout":{"storage":[],"types":null},"userdoc":{"kind":"user","methods":{"calldataKeccak(bytes)":{"notice":"keccak function over calldata."}},"version":1}}}}