{"contracts/aa/utils/Secp256r1.sol":{"Secp256r1":{"abi":[{"inputs":[],"name":"nn","outputs":[{"internalType":"uint256","name":"","type":"uint256"}],"stateMutability":"view","type":"function"},{"inputs":[],"name":"pp","outputs":[{"internalType":"uint256","name":"","type":"uint256"}],"stateMutability":"view","type":"function"}],"devdoc":{"kind":"dev","methods":{},"version":1},"evm":{"bytecode":{"linkReferences":{},"object":"608080604052346100195760ec908161001f823930815050f35b600080fdfe6080806040526004361015601257600080fd5b600090813560e01c90816372a4c30f14608957506391327ec614603457600080fd5b807ffffffffffffffffffffffffffffffffffffffffffffffffffffffffffffffffc36011260865760206040517fffffffff00000001000000000000000000000000ffffffffffffffffffffffff8152f35b80fd5b9050817ffffffffffffffffffffffffffffffffffffffffffffffffffffffffffffffffc36011260db57807fffffffff00000000ffffffffffffffffbce6faada7179e84f3b9cac2fc63255160209252f35b5080fdfea164736f6c6343000813000a","opcodes":"PUSH1 0x80 DUP1 PUSH1 0x40 MSTORE CALLVALUE PUSH2 0x19 JUMPI PUSH1 0xEC SWAP1 DUP2 PUSH2 0x1F DUP3 CODECOPY ADDRESS DUP2 POP POP RETURN JUMPDEST PUSH1 0x0 DUP1 REVERT INVALID PUSH1 0x80 DUP1 PUSH1 0x40 MSTORE PUSH1 0x4 CALLDATASIZE LT ISZERO PUSH1 0x12 JUMPI PUSH1 0x0 DUP1 REVERT JUMPDEST PUSH1 0x0 SWAP1 DUP2 CALLDATALOAD PUSH1 0xE0 SHR SWAP1 DUP2 PUSH4 0x72A4C30F EQ PUSH1 0x89 JUMPI POP PUSH4 0x91327EC6 EQ PUSH1 0x34 JUMPI PUSH1 0x0 DUP1 REVERT JUMPDEST DUP1 PUSH32 0xFFFFFFFFFFFFFFFFFFFFFFFFFFFFFFFFFFFFFFFFFFFFFFFFFFFFFFFFFFFFFFFC CALLDATASIZE ADD SLT PUSH1 0x86 JUMPI PUSH1 0x20 PUSH1 0x40 MLOAD PUSH32 0xFFFFFFFF00000001000000000000000000000000FFFFFFFFFFFFFFFFFFFFFFFF DUP2 MSTORE RETURN JUMPDEST DUP1 REVERT JUMPDEST SWAP1 POP DUP2 PUSH32 0xFFFFFFFFFFFFFFFFFFFFFFFFFFFFFFFFFFFFFFFFFFFFFFFFFFFFFFFFFFFFFFFC CALLDATASIZE ADD SLT PUSH1 0xDB JUMPI DUP1 PUSH32 0xFFFFFFFF00000000FFFFFFFFFFFFFFFFBCE6FAADA7179E84F3B9CAC2FC632551 PUSH1 0x20 SWAP3 MSTORE RETURN JUMPDEST POP DUP1 REVERT INVALID LOG1 PUSH5 0x736F6C6343 STOP ADDMOD SGT STOP EXP "},"gasEstimates":{"creation":{"codeDepositCost":"47200","executionCost":"infinite","totalCost":"infinite"},"external":{"nn()":"143","pp()":"162"},"internal":{"ShamirMultJacobian(struct JPoint memory[16] memory,uint256,uint256)":"infinite","Verify(struct PassKeyId memory,uint256,uint256,uint256)":"infinite","VerifyWithPrecompute(struct JPoint memory[16] memory,uint256,uint256,uint256)":"infinite","_affineFromJacobian(uint256,uint256,uint256)":"infinite","_jAdd(uint256,uint256,uint256,uint256,uint256,uint256)":"infinite","_jPointAdd(struct JPoint memory,struct JPoint memory)":"infinite","_jPointDouble(struct JPoint memory)":"infinite","_modifiedJacobianDouble(uint256,uint256,uint256)":"infinite","_preComputeJacobianPoints(struct PassKeyId memory)":"infinite","_primemod(uint256,uint256)":"infinite","modexp(uint256,uint256,uint256)":"infinite"}},"methodIdentifiers":{"nn()":"72a4c30f","pp()":"91327ec6"}},"storageLayout":{"storage":[],"types":null},"userdoc":{"kind":"user","methods":{},"version":1}}}}